20190707-22:09:21.557381000 : 8=FIX.4.4|9=81|35=A|34=1|49=ALFN00_00_MD|52=20190707-22:09:21.557|56=NTPROUAT|98=0|108=30|141=Y|10=228|
20190707-22:09:21.565006000 : 8=FIX.4.4|9=0088|35=5|49=NTPROUAT|56=ALFN00_00_MD|34=1|52=20190708-14:43:49.490|58=Time accuracy problem|10=181|
20190707-22:10:45.176659000 : 8=FIX.4.4|9=81|35=A|34=1|49=ALFN00_00_MD|52=20190707-22:10:45.176|56=NTPROUAT|98=0|108=30|141=Y|10=223|
20190707-22:10:45.180840000 : 8=FIX.4.4|9=0088|35=5|49=NTPROUAT|56=ALFN00_00_MD|34=2|52=20190708-14:45:13.110|58=Time accuracy problem|10=164|
20190707-22:12:58.946984000 : 8=FIX.4.4|9=81|35=A|34=1|49=ALFN00_00_MD|52=20190707-22:12:58.946|56=NTPROUAT|98=0|108=30|141=Y|10=234|
20190707-22:12:58.952791000 : 8=FIX.4.4|9=0088|35=5|49=NTPROUAT|56=ALFN00_00_MD|34=3|52=20190708-14:47:26.880|58=Time accuracy problem|10=185|
20190707-22:13:58.227583000 : 8=FIX.4.4|9=81|35=A|34=1|49=ALFN00_00_MD|52=20190707-22:13:58.226|56=NTPROUAT|98=0|108=30|141=Y|10=226|
20190707-22:13:58.234495000 : 8=FIX.4.4|9=0088|35=5|49=NTPROUAT|56=ALFN00_00_MD|34=4|52=20190708-14:48:26.163|58=Time accuracy problem|10=181|
20190707-22:14:58.685405000 : 8=FIX.4.4|9=81|35=A|34=1|49=ALFN00_00_MD|52=20190707-22:14:58.683|56=NTPROUAT|98=0|108=30|141=Y|10=234|
20190707-22:14:58.698859000 : 8=FIX.4.4|9=0088|35=5|49=NTPROUAT|56=ALFN00_00_MD|34=5|52=20190708-14:49:26.619|58=Time accuracy problem|10=189|
20190707-22:15:58.265435000 : 8=FIX.4.4|9=81|35=A|34=1|49=ALFN00_00_MD|52=20190707-22:15:58.259|56=NTPROUAT|98=0|108=30|141=Y|10=234|
20190707-22:15:58.283014000 : 8=FIX.4.4|9=0088|35=5|49=NTPROUAT|56=ALFN00_00_MD|34=6|52=20190708-14:50:26.207|58=Time accuracy problem|10=175|
20190707-22:16:58.446540000 : 8=FIX.4.4|9=81|35=A|34=1|49=ALFN00_00_MD|52=20190707-22:16:58.446|56=NTPROUAT|98=0|108=30|141=Y|10=233|
20190707-22:16:58.453085000 : 8=FIX.4.4|9=0088|35=5|49=NTPROUAT|56=ALFN00_00_MD|34=7|52=20190708-14:51:26.380|58=Time accuracy problem|10=179|
20190707-22:17:58.928381000 : 8=FIX.4.4|9=81|35=A|34=1|49=ALFN00_00_MD|52=20190707-22:17:58.927|56=NTPROUAT|98=0|108=30|141=Y|10=238|
20190707-22:17:58.936779000 : 8=FIX.4.4|9=0088|35=5|49=NTPROUAT|56=ALFN00_00_MD|34=8|52=20190708-14:52:26.862|58=Time accuracy problem|10=186|
20190707-22:44:44.919220000 : 8=FIX.4.4|9=81|35=A|34=1|49=ALFN00_00_MD|52=20190707-22:44:44.919|56=NTPROUAT|98=0|108=30|141=Y|10=234|
20190707-22:44:44.935774000 : 8=FIX.4.4|9=0088|35=5|49=NTPROUAT|56=ALFN00_00_MD|34=9|52=20190708-15:19:12.853|58=Time accuracy problem|10=186|
20190708-12:16:02.298920000 : 8=FIX.4.4|9=81|35=A|34=1|49=ALFN00_00_MD|52=20190708-12:16:02.298|56=NTPROUAT|98=0|108=30|141=Y|10=227|
20190708-12:16:02.317157000 : 8=FIX.4.4|9=0089|35=5|49=NTPROUAT|56=ALFN00_00_MD|34=10|52=20190708-15:50:58.242|58=Time accuracy problem|10=224|
20190708-12:17:02.087443000 : 8=FIX.4.4|9=81|35=A|34=1|49=ALFN00_00_MD|52=20190708-12:17:02.086|56=NTPROUAT|98=0|108=30|141=Y|10=223|
20190708-12:17:02.100195000 : 8=FIX.4.4|9=0089|35=5|49=NTPROUAT|56=ALFN00_00_MD|34=11|52=20190708-15:51:58.033|58=Time accuracy problem|10=224|
20190708-12:18:02.238653000 : 8=FIX.4.4|9=81|35=A|34=1|49=ALFN00_00_MD|52=20190708-12:18:02.238|56=NTPROUAT|98=0|108=30|141=Y|10=223|
20190708-12:18:02.244779000 : 8=FIX.4.4|9=0089|35=5|49=NTPROUAT|56=ALFN00_00_MD|34=12|52=20190708-15:52:58.182|58=Time accuracy problem|10=231|
20190708-12:53:02.965326000 : 8=FIX.4.4|9=81|35=A|34=1|49=ALFN00_00_MD|52=20190708-12:53:02.965|56=NTPROUAT|98=0|108=30|141=Y|10=229|
20190708-12:53:02.970346000 : 8=FIX.4.4|9=0089|35=5|49=NTPROUAT|56=ALFN00_00_MD|34=13|52=20190708-15:53:11.874|58=Time accuracy problem|10=230|
20190708-12:53:46.649854000 : 8=FIX.4.4|9=81|35=A|34=1|49=ALFN00_00_MD|52=20190708-12:53:46.649|56=NTPROUAT|98=0|108=30|141=Y|10=236|
20190708-12:53:46.659767000 : 8=FIX.4.4|9=0089|35=5|49=NTPROUAT|56=ALFN00_00_MD|34=14|52=20190708-15:54:00.311|58=Time accuracy problem|10=216|
20190708-12:54:46.487925000 : 8=FIX.4.4|9=81|35=A|34=1|49=ALFN00_00_MD|52=20190708-12:54:46.487|56=NTPROUAT|98=0|108=30|141=Y|10=237|
20190708-12:54:46.492980000 : 8=FIX.4.4|9=0089|35=5|49=NTPROUAT|56=ALFN00_00_MD|34=15|52=20190708-15:55:00.148|58=Time accuracy problem|10=226|
20190708-12:55:46.414418000 : 8=FIX.4.4|9=81|35=A|34=1|49=ALFN00_00_MD|52=20190708-12:55:46.414|56=NTPROUAT|98=0|108=30|141=Y|10=228|
20190708-12:55:46.418693000 : 8=FIX.4.4|9=0089|35=5|49=NTPROUAT|56=ALFN00_00_MD|34=16|52=20190708-15:56:00.572|58=Time accuracy problem|10=229|
20190708-12:56:46.317940000 : 8=FIX.4.4|9=81|35=A|34=1|49=ALFN00_00_MD|52=20190708-12:56:46.317|56=NTPROUAT|98=0|108=30|141=Y|10=231|
20190708-12:56:46.326500000 : 8=FIX.4.4|9=0089|35=5|49=NTPROUAT|56=ALFN00_00_MD|34=17|52=20190708-15:57:00.476|58=Time accuracy problem|10=234|
20190708-12:57:46.776658000 : 8=FIX.4.4|9=81|35=A|34=1|49=ALFN00_00_MD|52=20190708-12:57:46.776|56=NTPROUAT|98=0|108=30|141=Y|10=241|
20190708-12:57:46.785404000 : 8=FIX.4.4|9=0089|35=5|49=NTPROUAT|56=ALFN00_00_MD|34=18|52=20190708-15:58:00.934|58=Time accuracy problem|10=235|
20190708-12:58:46.632127000 : 8=FIX.4.4|9=81|35=A|34=1|49=ALFN00_00_MD|52=20190708-12:58:46.631|56=NTPROUAT|98=0|108=30|141=Y|10=232|
20190708-12:58:46.638278000 : 8=FIX.4.4|9=0089|35=5|49=NTPROUAT|56=ALFN00_00_MD|34=19|52=20190708-15:59:00.790|58=Time accuracy problem|10=237|
20190708-12:59:46.906630000 : 8=FIX.4.4|9=81|35=A|34=1|49=ALFN00_00_MD|52=20190708-12:59:46.906|56=NTPROUAT|98=0|108=30|141=Y|10=238|
20190708-12:59:46.913165000 : 8=FIX.4.4|9=0089|35=5|49=NTPROUAT|56=ALFN00_00_MD|34=20|52=20190708-16:00:01.065|58=Time accuracy problem|10=212|
20190708-13:00:46.735465000 : 8=FIX.4.4|9=81|35=A|34=1|49=ALFN00_00_MD|52=20190708-13:00:46.735|56=NTPROUAT|98=0|108=30|141=Y|10=225|
20190708-13:00:46.745319000 : 8=FIX.4.4|9=0089|35=5|49=NTPROUAT|56=ALFN00_00_MD|34=21|52=20190708-16:01:00.897|58=Time accuracy problem|10=226|
20190708-13:01:46.155640000 : 8=FIX.4.4|9=81|35=A|34=1|49=ALFN00_00_MD|52=20190708-13:01:46.155|56=NTPROUAT|98=0|108=30|141=Y|10=222|
20190708-13:01:46.161007000 : 8=FIX.4.4|9=0089|35=5|49=NTPROUAT|56=ALFN00_00_MD|34=22|52=20190708-16:02:00.313|58=Time accuracy problem|10=211|
20190708-13:02:46.555228000 : 8=FIX.4.4|9=81|35=A|34=1|49=ALFN00_00_MD|52=20190708-13:02:46.554|56=NTPROUAT|98=0|108=30|141=Y|10=226|
20190708-13:02:46.559540000 : 8=FIX.4.4|9=0089|35=5|49=NTPROUAT|56=ALFN00_00_MD|34=23|52=20190708-16:03:00.713|58=Time accuracy problem|10=217|
20190708-09:06:45.798722000 : 8=FIX.4.4|9=81|35=A|34=1|49=ALFN00_00_MD|52=20190708-09:06:45.798|56=NTPROUAT|98=0|108=30|141=Y|10=244|
20190708-09:06:45.813018000 : 8=FIX.4.4|9=0089|35=5|49=NTPROUAT|56=ALFN00_00_MD|34=24|52=20190708-16:07:05.743|58=Time accuracy problem|10=230|
20190708-09:07:45.434444000 : 8=FIX.4.4|9=81|35=A|34=1|49=ALFN00_00_MD|52=20190708-09:07:45.434|56=NTPROUAT|98=0|108=30|141=Y|10=232|
20190708-09:07:45.443438000 : 8=FIX.4.4|9=0089|35=5|49=NTPROUAT|56=ALFN00_00_MD|34=25|52=20190708-16:08:05.380|58=Time accuracy problem|10=229|
20190708-09:08:45.650888000 : 8=FIX.4.4|9=81|35=A|34=1|49=ALFN00_00_MD|52=20190708-09:08:45.650|56=NTPROUAT|98=0|108=30|141=Y|10=233|
20190708-09:08:45.655520000 : 8=FIX.4.4|9=0089|35=5|49=NTPROUAT|56=ALFN00_00_MD|34=26|52=20190708-16:09:05.595|58=Time accuracy problem|10=239|
20190708-09:09:45.371595000 : 8=FIX.4.4|9=81|35=A|34=1|49=ALFN00_00_MD|52=20190708-09:09:45.371|56=NTPROUAT|98=0|108=30|141=Y|10=234|
20190708-09:09:45.384463000 : 8=FIX.4.4|9=0089|35=5|49=NTPROUAT|56=ALFN00_00_MD|34=27|52=20190708-16:10:05.316|58=Time accuracy problem|10=223|
20190708-09:10:45.685943000 : 8=FIX.4.4|9=81|35=A|34=1|49=ALFN00_00_MD|52=20190708-09:10:45.685|56=NTPROUAT|98=0|108=30|141=Y|10=234|
20190708-09:10:45.689698000 : 8=FIX.4.4|9=0089|35=5|49=NTPROUAT|56=ALFN00_00_MD|34=28|52=20190708-16:11:05.630|58=Time accuracy problem|10=224|
20190708-09:11:45.568536000 : 8=FIX.4.4|9=81|35=A|34=1|49=ALFN00_00_MD|52=20190708-09:11:45.568|56=NTPROUAT|98=0|108=30|141=Y|10=235|
20190708-09:11:45.572454000 : 8=FIX.4.4|9=0089|35=5|49=NTPROUAT|56=ALFN00_00_MD|34=29|52=20190708-16:12:05.513|58=Time accuracy problem|10=226|
20190708-09:12:45.907015000 : 8=FIX.4.4|9=81|35=A|34=1|49=ALFN00_00_MD|52=20190708-09:12:45.906|56=NTPROUAT|98=0|108=30|141=Y|10=232|
20190708-09:12:45.911882000 : 8=FIX.4.4|9=0089|35=5|49=NTPROUAT|56=ALFN00_00_MD|34=30|52=20190708-16:13:05.852|58=Time accuracy problem|10=225|
20190708-09:13:45.813010000 : 8=FIX.4.4|9=81|35=A|34=1|49=ALFN00_00_MD|52=20190708-09:13:45.812|56=NTPROUAT|98=0|108=30|141=Y|10=229|
20190708-09:13:45.825532000 : 8=FIX.4.4|9=0089|35=5|49=NTPROUAT|56=ALFN00_00_MD|34=31|52=20190708-16:14:05.758|58=Time accuracy problem|10=232|
20190708-09:14:45.596099000 : 8=FIX.4.4|9=81|35=A|34=1|49=ALFN00_00_MD|52=20190708-09:14:45.595|56=NTPROUAT|98=0|108=30|141=Y|10=238|
20190708-09:14:45.603687000 : 8=FIX.4.4|9=0089|35=5|49=NTPROUAT|56=ALFN00_00_MD|34=32|52=20190708-16:15:05.541|58=Time accuracy problem|10=224|
20190708-09:15:45.758991000 : 8=FIX.4.4|9=81|35=A|34=1|49=ALFN00_00_MD|52=20190708-09:15:45.758|56=NTPROUAT|98=0|108=30|141=Y|10=240|
20190708-09:15:45.780807000 : 8=FIX.4.4|9=0089|35=5|49=NTPROUAT|56=ALFN00_00_MD|34=33|52=20190708-16:16:05.713|58=Time accuracy problem|10=227|
20190708-09:16:45.320174000 : 8=FIX.4.4|9=81|35=A|34=1|49=ALFN00_00_MD|52=20190708-09:16:45.319|56=NTPROUAT|98=0|108=30|141=Y|10=234|
20190708-09:16:45.325420000 : 8=FIX.4.4|9=0089|35=5|49=NTPROUAT|56=ALFN00_00_MD|34=34|52=20190708-16:17:05.265|58=Time accuracy problem|10=231|
20190708-09:17:45.558008000 : 8=FIX.4.4|9=81|35=A|34=1|49=ALFN00_00_MD|52=20190708-09:17:45.557|56=NTPROUAT|98=0|108=30|141=Y|10=239|
20190708-09:17:45.564077000 : 8=FIX.4.4|9=0089|35=5|49=NTPROUAT|56=ALFN00_00_MD|34=35|52=20190708-16:18:05.503|58=Time accuracy problem|10=228|
20190709-05:59:50.981461000 : 8=FIX.4.4|9=81|35=A|34=1|49=ALFN00_00_MD|52=20190709-05:59:50.981|56=NTPROUAT|98=0|108=30|141=Y|10=239|
20190709-06:00:47.607090000 : 8=FIX.4.4|9=81|35=A|34=1|49=ALFN00_00_MD|52=20190709-06:00:47.606|56=NTPROUAT|98=0|108=30|141=Y|10=226|
20190709-06:03:33.592339000 : 8=FIX.4.4|9=81|35=A|34=1|49=ALFN00_00_MD|52=20190709-06:03:33.592|56=NTPROUAT|98=0|108=30|141=Y|10=228|
20190709-06:04:33.871703000 : 8=FIX.4.4|9=81|35=A|34=1|49=ALFN00_00_MD|52=20190709-06:04:33.871|56=NTPROUAT|98=0|108=30|141=Y|10=229|
20190709-06:06:14.188439000 : 8=FIX.4.4|9=81|35=A|34=1|49=ALFN00_00_MD|52=20190709-06:06:14.188|56=NTPROUAT|98=0|108=30|141=Y|10=231|
20190709-06:06:33.701078000 : 8=FIX.4.4|9=81|35=A|34=1|49=ALFN00_00_MD|52=20190709-06:06:33.700|56=NTPROUAT|98=0|108=30|141=Y|10=222|
20190709-06:07:33.918982000 : 8=FIX.4.4|9=81|35=A|34=1|49=ALFN00_00_MD|52=20190709-06:07:33.918|56=NTPROUAT|98=0|108=30|141=Y|10=234|
20190709-06:13:01.031751000 : 8=FIX.4.4|9=81|35=A|34=1|49=ALFN00_00_MD|52=20190709-06:13:00.994|56=NTPROUAT|98=0|108=30|141=Y|10=229|
20190709-06:15:14.332117000 : 8=FIX.4.4|9=81|35=A|34=1|49=ALFN00_00_MD|52=20190709-06:15:14.331|56=NTPROUAT|98=0|108=30|141=Y|10=221|
20190709-06:28:51.214006000 : 8=FIX.4.4|9=81|35=A|34=1|49=ALFN00_00_MD|52=20190709-06:28:51.213|56=NTPROUAT|98=0|108=30|141=Y|10=225|
20190709-06:51:07.200235000 : 8=FIX.4.4|9=81|35=A|34=1|49=ALFN00_00_MD|52=20190709-06:51:07.200|56=NTPROUAT|98=0|108=30|141=Y|10=218|
20190709-07:15:11.969455000 : 8=FIX.4.4|9=81|35=A|34=1|49=ALFN00_00_MD|52=20190709-07:15:11.969|56=NTPROUAT|98=0|108=30|141=Y|10=236|
20190709-07:15:42.464501000 : 8=FIX.4.4|9=81|35=A|34=1|49=ALFN00_00_MD|52=20190709-07:15:42.464|56=NTPROUAT|98=0|108=30|141=Y|10=230|
20190709-07:16:02.251855000 : 8=FIX.4.4|9=81|35=A|34=1|49=ALFN00_00_MD|52=20190709-07:16:02.251|56=NTPROUAT|98=0|108=30|141=Y|10=221|
20190709-07:17:09.109717000 : 8=FIX.4.4|9=81|35=A|34=1|49=ALFN00_00_MD|52=20190709-07:17:09.109|56=NTPROUAT|98=0|108=30|141=Y|10=231|
20190709-07:20:45.145167000 : 8=FIX.4.4|9=81|35=A|34=1|49=ALFN00_00_MD|52=20190709-07:20:45.144|56=NTPROUAT|98=0|108=30|141=Y|10=224|
20190709-07:23:43.600939000 : 8=FIX.4.4|9=81|35=A|34=1|49=ALFN00_00_MD|52=20190709-07:23:43.600|56=NTPROUAT|98=0|108=30|141=Y|10=222|
20190709-07:23:43.604789000 : 8=FIX.4.4|9=0081|35=A|49=NTPROUAT|56=ALFN00_00_MD|34=1|52=20190709-07:24:33.947|98=0|108=30|141=Y|10=076|
20190709-07:23:43.606046000 : 8=FIX.4.4|9=0100|35=h|49=NTPROUAT|56=ALFN00_00_MD|34=2|52=20190709-07:24:33.947|336=Market Data|340=2|58=version 3.0|10=103|
20190709-07:24:13.517736000 : 8=FIX.4.4|9=63|35=0|34=2|49=ALFN00_00_MD|52=20190709-07:24:13.517|56=NTPROUAT|10=141|
20190709-07:24:13.687632000 : 8=FIX.4.4|9=0063|35=0|49=NTPROUAT|56=ALFN00_00_MD|34=3|52=20190709-07:25:04.030|10=229|
20190709-07:24:43.473280000 : 8=FIX.4.4|9=63|35=0|34=3|49=ALFN00_00_MD|52=20190709-07:24:43.473|56=NTPROUAT|10=146|
20190709-07:24:43.708046000 : 8=FIX.4.4|9=0063|35=0|49=NTPROUAT|56=ALFN00_00_MD|34=4|52=20190709-07:25:34.047|10=241|
20190709-07:25:36.641470000 : 8=FIX.4.4|9=81|35=A|34=1|49=ALFN00_00_MD|52=20190709-07:25:36.641|56=NTPROUAT|98=0|108=30|141=Y|10=231|
20190709-07:25:36.645449000 : 8=FIX.4.4|9=0081|35=A|49=NTPROUAT|56=ALFN00_00_MD|34=1|52=20190709-07:26:26.988|98=0|108=30|141=Y|10=085|
20190709-07:25:36.645656000 : 8=FIX.4.4|9=0100|35=h|49=NTPROUAT|56=ALFN00_00_MD|34=2|52=20190709-07:26:26.988|336=Market Data|340=2|58=version 3.0|10=112|
20190709-07:26:06.605535000 : 8=FIX.4.4|9=63|35=0|34=2|49=ALFN00_00_MD|52=20190709-07:26:06.605|56=NTPROUAT|10=143|
20190709-07:26:06.657688000 : 8=FIX.4.4|9=0063|35=0|49=NTPROUAT|56=ALFN00_00_MD|34=3|52=20190709-07:26:57.000|10=235|
20190709-07:26:36.516710000 : 8=FIX.4.4|9=63|35=0|34=3|49=ALFN00_00_MD|52=20190709-07:26:36.516|56=NTPROUAT|10=148|
20190709-07:26:36.680748000 : 8=FIX.4.4|9=0063|35=0|49=NTPROUAT|56=ALFN00_00_MD|34=4|52=20190709-07:27:27.021|10=237|
20190709-07:27:06.471822000 : 8=FIX.4.4|9=63|35=0|34=4|49=ALFN00_00_MD|52=20190709-07:27:06.471|56=NTPROUAT|10=147|
20190709-07:27:06.689921000 : 8=FIX.4.4|9=0063|35=0|49=NTPROUAT|56=ALFN00_00_MD|34=5|52=20190709-07:27:57.032|10=243|
20190709-07:27:36.412451000 : 8=FIX.4.4|9=63|35=0|34=5|49=ALFN00_00_MD|52=20190709-07:27:36.412|56=NTPROUAT|10=146|
20190709-07:27:36.712856000 : 8=FIX.4.4|9=0063|35=0|49=NTPROUAT|56=ALFN00_00_MD|34=6|52=20190709-07:28:27.048|10=249|
20190709-07:28:06.366613000 : 8=FIX.4.4|9=63|35=0|34=6|49=ALFN00_00_MD|52=20190709-07:28:06.366|56=NTPROUAT|10=153|
20190709-07:28:06.725284000 : 8=FIX.4.4|9=0063|35=0|49=NTPROUAT|56=ALFN00_00_MD|34=7|52=20190709-07:28:57.068|10=255|
20190709-07:28:36.296267000 : 8=FIX.4.4|9=63|35=0|34=7|49=ALFN00_00_MD|52=20190709-07:28:36.296|56=NTPROUAT|10=159|
20190709-07:28:36.654235000 : 8=FIX.4.4|9=0063|35=0|49=NTPROUAT|56=ALFN00_00_MD|34=8|52=20190709-07:29:26.990|10=001|
20190709-07:29:06.151875000 : 8=FIX.4.4|9=63|35=0|34=8|49=ALFN00_00_MD|52=20190709-07:29:06.151|56=NTPROUAT|10=148|
20190709-07:29:06.664971000 : 8=FIX.4.4|9=0063|35=0|49=NTPROUAT|56=ALFN00_00_MD|34=9|52=20190709-07:29:57.007|10=251|
20190709-07:29:36.089782000 : 8=FIX.4.4|9=63|35=0|34=9|49=ALFN00_00_MD|52=20190709-07:29:36.089|56=NTPROUAT|10=162|
20190709-07:29:36.680866000 : 8=FIX.4.4|9=0064|35=0|49=NTPROUAT|56=ALFN00_00_MD|34=10|52=20190709-07:30:27.023|10=023|
20190709-07:30:36.397200000 : 8=FIX.4.4|9=81|35=A|34=1|49=ALFN00_00_MD|52=20190709-07:30:36.397|56=NTPROUAT|98=0|108=30|141=Y|10=235|
20190709-07:30:36.402348000 : 8=FIX.4.4|9=0081|35=A|49=NTPROUAT|56=ALFN00_00_MD|34=1|52=20190709-07:31:26.745|98=0|108=30|141=Y|10=072|
20190709-07:30:36.402477000 : 8=FIX.4.4|9=0100|35=h|49=NTPROUAT|56=ALFN00_00_MD|34=2|52=20190709-07:31:26.745|336=Market Data|340=2|58=version 3.0|10=099|
20190709-07:31:06.434216000 : 8=FIX.4.4|9=0063|35=0|49=NTPROUAT|56=ALFN00_00_MD|34=3|52=20190709-07:31:56.777|10=251|
20190709-07:31:06.434369000 : 8=FIX.4.4|9=63|35=0|34=2|49=ALFN00_00_MD|52=20190709-07:31:06.434|56=NTPROUAT|10=139|
20190709-07:31:36.456225000 : 8=FIX.4.4|9=0063|35=0|49=NTPROUAT|56=ALFN00_00_MD|34=4|52=20190709-07:32:26.793|10=248|
20190709-07:31:36.456355000 : 8=FIX.4.4|9=63|35=0|34=3|49=ALFN00_00_MD|52=20190709-07:31:36.456|56=NTPROUAT|10=147|
20190709-07:32:06.443667000 : 8=FIX.4.4|9=63|35=0|34=4|49=ALFN00_00_MD|52=20190709-07:32:06.443|56=NTPROUAT|10=142|
20190709-07:32:06.467189000 : 8=FIX.4.4|9=0063|35=0|49=NTPROUAT|56=ALFN00_00_MD|34=5|52=20190709-07:32:56.809|10=250|
20190709-07:32:36.380119000 : 8=FIX.4.4|9=63|35=0|34=5|49=ALFN00_00_MD|52=20190709-07:32:36.380|56=NTPROUAT|10=146|
20190709-07:32:36.484507000 : 8=FIX.4.4|9=0063|35=0|49=NTPROUAT|56=ALFN00_00_MD|34=6|52=20190709-07:33:26.827|10=249|
20190709-07:33:00.762788000 : 8=FIX.4.4|9=81|35=A|34=1|49=ALFN00_00_MD|52=20190709-07:33:00.762|56=NTPROUAT|98=0|108=30|141=Y|10=225|
20190709-07:33:06.318022000 : 8=FIX.4.4|9=63|35=0|34=6|49=ALFN00_00_MD|52=20190709-07:33:06.317|56=NTPROUAT|10=145|
20190709-07:33:06.501919000 : 8=FIX.4.4|9=0063|35=0|49=NTPROUAT|56=ALFN00_00_MD|34=7|52=20190709-07:33:56.843|10=251|
20190709-07:33:36.237046000 : 8=FIX.4.4|9=63|35=0|34=7|49=ALFN00_00_MD|52=20190709-07:33:36.236|56=NTPROUAT|10=149|
20190709-07:33:36.422822000 : 8=FIX.4.4|9=0063|35=0|49=NTPROUAT|56=ALFN00_00_MD|34=8|52=20190709-07:34:26.765|10=253|
20190709-07:34:06.089935000 : 8=FIX.4.4|9=63|35=0|34=8|49=ALFN00_00_MD|52=20190709-07:34:06.089|56=NTPROUAT|10=154|
20190709-07:34:06.445400000 : 8=FIX.4.4|9=0063|35=0|49=NTPROUAT|56=ALFN00_00_MD|34=9|52=20190709-07:34:56.788|10=006|
20190709-07:34:36.026649000 : 8=FIX.4.4|9=63|35=0|34=9|49=ALFN00_00_MD|52=20190709-07:34:36.026|56=NTPROUAT|10=149|
20190709-07:34:36.456967000 : 8=FIX.4.4|9=0064|35=0|49=NTPROUAT|56=ALFN00_00_MD|34=10|52=20190709-07:35:26.799|10=047|
20190709-07:35:06.480938000 : 8=FIX.4.4|9=0064|35=0|49=NTPROUAT|56=ALFN00_00_MD|34=11|52=20190709-07:35:56.819|10=044|
20190709-07:35:06.481068000 : 8=FIX.4.4|9=64|35=0|34=10|49=ALFN00_00_MD|52=20190709-07:35:06.481|56=NTPROUAT|10=193|
20190709-07:35:12.333685000 : 8=FIX.4.4|9=81|35=A|34=1|49=ALFN00_00_MD|52=20190709-07:35:12.333|56=NTPROUAT|98=0|108=30|141=Y|10=224|
20190709-07:35:36.406018000 : 8=FIX.4.4|9=0064|35=0|49=NTPROUAT|56=ALFN00_00_MD|34=12|52=20190709-07:36:26.749|10=045|
20190709-07:35:36.406260000 : 8=FIX.4.4|9=64|35=0|34=11|49=ALFN00_00_MD|52=20190709-07:35:36.406|56=NTPROUAT|10=194|
20190709-07:36:04.229622000 : 8=FIX.4.4|9=81|35=A|34=1|49=ALFN00_00_MD|52=20190709-07:36:04.229|56=NTPROUAT|98=0|108=30|141=Y|10=230|
20190709-07:36:06.428625000 : 8=FIX.4.4|9=0064|35=0|49=NTPROUAT|56=ALFN00_00_MD|34=13|52=20190709-07:36:56.771|10=044|
20190709-07:36:06.428785000 : 8=FIX.4.4|9=64|35=0|34=12|49=ALFN00_00_MD|52=20190709-07:36:06.428|56=NTPROUAT|10=197|
20190709-07:36:36.201002000 : 8=FIX.4.4|9=81|35=A|34=1|49=ALFN00_00_MD|52=20190709-07:36:36.200|56=NTPROUAT|98=0|108=30|141=Y|10=224|
20190709-07:37:08.147072000 : 8=FIX.4.4|9=81|35=A|34=1|49=ALFN00_00_MD|52=20190709-07:37:08.146|56=NTPROUAT|98=0|108=30|141=Y|10=233|
20190709-07:37:08.164679000 : 8=FIX.4.4|9=0081|35=A|49=NTPROUAT|56=ALFN00_00_MD|34=1|52=20190709-07:37:58.494|98=0|108=30|141=Y|10=084|
20190709-07:37:08.164899000 : 8=FIX.4.4|9=0100|35=h|49=NTPROUAT|56=ALFN00_00_MD|34=2|52=20190709-07:37:58.494|336=Market Data|340=2|58=version 3.0|10=111|
20190709-07:37:36.272283000 : 8=FIX.4.4|9=81|35=A|34=1|49=ALFN00_00_MD|52=20190709-07:37:36.272|56=NTPROUAT|98=0|108=30|141=Y|10=234|
20190709-07:38:18.457022000 : 8=FIX.4.4|9=81|35=A|34=1|49=ALFN00_00_MD|52=20190709-07:38:18.456|56=NTPROUAT|98=0|108=30|141=Y|10=239|
20190709-07:38:18.461856000 : 8=FIX.4.4|9=0081|35=A|49=NTPROUAT|56=ALFN00_00_MD|34=1|52=20190709-07:39:08.803|98=0|108=30|141=Y|10=075|
20190709-07:38:18.462126000 : 8=FIX.4.4|9=0100|35=h|49=NTPROUAT|56=ALFN00_00_MD|34=2|52=20190709-07:39:08.804|336=Market Data|340=2|58=version 3.0|10=103|
20190709-07:38:36.902509000 : 8=FIX.4.4|9=81|35=A|34=1|49=ALFN00_00_MD|52=20190709-07:38:36.902|56=NTPROUAT|98=0|108=30|141=Y|10=235|
20190709-07:38:48.131082000 : 8=FIX.4.4|9=63|35=0|34=2|49=ALFN00_00_MD|52=20190709-07:38:48.131|56=NTPROUAT|10=146|
20190709-07:38:48.517276000 : 8=FIX.4.4|9=0063|35=0|49=NTPROUAT|56=ALFN00_00_MD|34=3|52=20190709-07:39:38.860|10=252|
20190709-07:39:18.015100000 : 8=FIX.4.4|9=63|35=0|34=3|49=ALFN00_00_MD|52=20190709-07:39:18.015|56=NTPROUAT|10=146|
20190709-07:39:18.535867000 : 8=FIX.4.4|9=0063|35=0|49=NTPROUAT|56=ALFN00_00_MD|34=4|52=20190709-07:40:08.878|10=251|
20190709-07:39:36.247604000 : 8=FIX.4.4|9=81|35=A|34=1|49=ALFN00_00_MD|52=20190709-07:39:36.247|56=NTPROUAT|98=0|108=30|141=Y|10=238|
20190709-07:39:48.548499000 : 8=FIX.4.4|9=0063|35=0|49=NTPROUAT|56=ALFN00_00_MD|34=5|52=20190709-07:40:38.888|10=000|
20190709-07:39:48.548627000 : 8=FIX.4.4|9=63|35=0|34=4|49=ALFN00_00_MD|52=20190709-07:39:48.548|56=NTPROUAT|10=161|
20190709-07:40:00.247510000 : 8=FIX.4.4|9=63|35=5|34=5|49=ALFN00_00_MD|52=20190709-07:40:00.247|56=NTPROUAT|10=143|
20190709-07:40:00.251046000 : 8=FIX.4.4|9=0086|35=5|49=NTPROUAT|56=ALFN00_00_MD|34=6|52=20190709-07:40:50.594|58=Remote side request|10=004|
20190709-07:40:36.166133000 : 8=FIX.4.4|9=81|35=A|34=1|49=ALFN00_00_MD|52=20190709-07:40:36.165|56=NTPROUAT|98=0|108=30|141=Y|10=229|
20190709-07:40:36.170184000 : 8=FIX.4.4|9=0081|35=A|49=NTPROUAT|56=ALFN00_00_MD|34=1|52=20190709-07:41:26.513|98=0|108=30|141=Y|10=066|
20190709-07:40:36.170450000 : 8=FIX.4.4|9=0100|35=h|49=NTPROUAT|56=ALFN00_00_MD|34=2|52=20190709-07:41:26.513|336=Market Data|340=2|58=version 3.0|10=093|
20190709-07:41:06.192677000 : 8=FIX.4.4|9=0063|35=0|49=NTPROUAT|56=ALFN00_00_MD|34=3|52=20190709-07:41:56.533|10=242|
20190709-07:41:06.192945000 : 8=FIX.4.4|9=63|35=0|34=2|49=ALFN00_00_MD|52=20190709-07:41:06.192|56=NTPROUAT|10=141|
20190709-07:41:36.214551000 : 8=FIX.4.4|9=0063|35=0|49=NTPROUAT|56=ALFN00_00_MD|34=4|52=20190709-07:42:26.557|10=247|
20190709-07:41:36.214726000 : 8=FIX.4.4|9=63|35=0|34=3|49=ALFN00_00_MD|52=20190709-07:41:36.214|56=NTPROUAT|10=140|
20190709-07:42:06.242966000 : 8=FIX.4.4|9=0063|35=0|49=NTPROUAT|56=ALFN00_00_MD|34=5|52=20190709-07:42:56.585|10=252|
20190709-07:42:06.243526000 : 8=FIX.4.4|9=63|35=0|34=4|49=ALFN00_00_MD|52=20190709-07:42:06.243|56=NTPROUAT|10=141|
20190709-07:42:36.233620000 : 8=FIX.4.4|9=63|35=0|34=5|49=ALFN00_00_MD|52=20190709-07:42:36.233|56=NTPROUAT|10=144|
20190709-07:42:36.257374000 : 8=FIX.4.4|9=0063|35=0|49=NTPROUAT|56=ALFN00_00_MD|34=6|52=20190709-07:43:26.600|10=239|
20190709-07:43:06.155095000 : 8=FIX.4.4|9=63|35=0|34=6|49=ALFN00_00_MD|52=20190709-07:43:06.155|56=NTPROUAT|10=146|
20190709-07:43:06.173760000 : 8=FIX.4.4|9=0063|35=0|49=NTPROUAT|56=ALFN00_00_MD|34=7|52=20190709-07:43:56.516|10=249|
20190709-07:43:36.194066000 : 8=FIX.4.4|9=0063|35=0|49=NTPROUAT|56=ALFN00_00_MD|34=8|52=20190709-07:44:26.536|10=250|
20190709-07:43:36.194202000 : 8=FIX.4.4|9=63|35=0|34=7|49=ALFN00_00_MD|52=20190709-07:43:36.194|56=NTPROUAT|10=153|
20190709-07:44:06.212994000 : 8=FIX.4.4|9=0063|35=0|49=NTPROUAT|56=ALFN00_00_MD|34=9|52=20190709-07:44:56.553|10=253|
20190709-07:44:06.213190000 : 8=FIX.4.4|9=63|35=0|34=8|49=ALFN00_00_MD|52=20190709-07:44:06.213|56=NTPROUAT|10=144|
20190709-07:44:36.233337000 : 8=FIX.4.4|9=0064|35=0|49=NTPROUAT|56=ALFN00_00_MD|34=10|52=20190709-07:45:26.574|10=039|
20190709-07:44:36.233537000 : 8=FIX.4.4|9=63|35=0|34=9|49=ALFN00_00_MD|52=20190709-07:44:36.233|56=NTPROUAT|10=150|
20190709-07:45:06.254985000 : 8=FIX.4.4|9=0064|35=0|49=NTPROUAT|56=ALFN00_00_MD|34=11|52=20190709-07:45:56.598|10=049|
20190709-07:45:06.255107000 : 8=FIX.4.4|9=64|35=0|34=10|49=ALFN00_00_MD|52=20190709-07:45:06.255|56=NTPROUAT|10=193|
20190709-07:45:36.171691000 : 8=FIX.4.4|9=0064|35=0|49=NTPROUAT|56=ALFN00_00_MD|34=12|52=20190709-07:46:26.515|10=037|
20190709-07:45:36.171890000 : 8=FIX.4.4|9=64|35=0|34=11|49=ALFN00_00_MD|52=20190709-07:45:36.171|56=NTPROUAT|10=194|
20190709-07:46:06.195922000 : 8=FIX.4.4|9=0064|35=0|49=NTPROUAT|56=ALFN00_00_MD|34=13|52=20190709-07:46:56.536|10=044|
20190709-07:46:06.196038000 : 8=FIX.4.4|9=64|35=0|34=12|49=ALFN00_00_MD|52=20190709-07:46:06.196|56=NTPROUAT|10=200|
20190709-07:46:36.204008000 : 8=FIX.4.4|9=0064|35=0|49=NTPROUAT|56=ALFN00_00_MD|34=14|52=20190709-07:47:26.545|10=043|
20190709-07:46:36.204178000 : 8=FIX.4.4|9=64|35=0|34=13|49=ALFN00_00_MD|52=20190709-07:46:36.204|56=NTPROUAT|10=194|
20190709-07:47:06.216955000 : 8=FIX.4.4|9=0064|35=0|49=NTPROUAT|56=ALFN00_00_MD|34=15|52=20190709-07:47:56.560|10=044|
20190709-07:47:06.217225000 : 8=FIX.4.4|9=64|35=0|34=14|49=ALFN00_00_MD|52=20190709-07:47:06.217|56=NTPROUAT|10=197|
20190709-07:47:36.153824000 : 8=FIX.4.4|9=64|35=0|34=15|49=ALFN00_00_MD|52=20190709-07:47:36.153|56=NTPROUAT|10=200|
20190709-07:47:36.233764000 : 8=FIX.4.4|9=0064|35=0|49=NTPROUAT|56=ALFN00_00_MD|34=16|52=20190709-07:48:26.576|10=050|
20190709-07:48:06.073993000 : 8=FIX.4.4|9=64|35=0|34=16|49=ALFN00_00_MD|52=20190709-07:48:06.073|56=NTPROUAT|10=200|
20190709-07:48:06.254912000 : 8=FIX.4.4|9=0064|35=0|49=NTPROUAT|56=ALFN00_00_MD|34=17|52=20190709-07:48:56.596|10=056|
20190709-07:48:36.005419000 : 8=FIX.4.4|9=64|35=0|34=17|49=ALFN00_00_MD|52=20190709-07:48:36.005|56=NTPROUAT|10=199|
20190709-07:48:36.175427000 : 8=FIX.4.4|9=0064|35=0|49=NTPROUAT|56=ALFN00_00_MD|34=18|52=20190709-07:49:26.518|10=049|
20190709-07:49:06.191711000 : 8=FIX.4.4|9=0064|35=0|49=NTPROUAT|56=ALFN00_00_MD|34=19|52=20190709-07:49:56.534|10=051|
20190709-07:49:06.191952000 : 8=FIX.4.4|9=64|35=0|34=18|49=ALFN00_00_MD|52=20190709-07:49:06.191|56=NTPROUAT|10=204|
20190709-07:49:36.237684000 : 8=FIX.4.4|9=0064|35=0|49=NTPROUAT|56=ALFN00_00_MD|34=20|52=20190709-07:50:26.555|10=035|
20190709-07:49:36.237805000 : 8=FIX.4.4|9=64|35=0|34=19|49=ALFN00_00_MD|52=20190709-07:49:36.237|56=NTPROUAT|10=209|
20190709-07:50:06.235603000 : 8=FIX.4.4|9=0064|35=0|49=NTPROUAT|56=ALFN00_00_MD|34=21|52=20190709-07:50:56.578|10=044|
20190709-07:50:06.235731000 : 8=FIX.4.4|9=64|35=0|34=20|49=ALFN00_00_MD|52=20190709-07:50:06.235|56=NTPROUAT|10=188|
20190709-07:50:36.251575000 : 8=FIX.4.4|9=0064|35=0|49=NTPROUAT|56=ALFN00_00_MD|34=22|52=20190709-07:51:26.594|10=041|
20190709-07:50:36.252140000 : 8=FIX.4.4|9=64|35=0|34=21|49=ALFN00_00_MD|52=20190709-07:50:36.252|56=NTPROUAT|10=191|
20190709-07:51:06.269312000 : 8=FIX.4.4|9=0064|35=0|49=NTPROUAT|56=ALFN00_00_MD|34=23|52=20190709-07:51:56.610|10=034|
20190709-07:51:06.283525000 : 8=FIX.4.4|9=64|35=0|34=22|49=ALFN00_00_MD|52=20190709-07:51:06.269|56=NTPROUAT|10=198|
20190709-07:51:36.182163000 : 8=FIX.4.4|9=0064|35=0|49=NTPROUAT|56=ALFN00_00_MD|34=24|52=20190709-07:52:26.525|10=038|
20190709-07:51:36.182345000 : 8=FIX.4.4|9=64|35=0|34=23|49=ALFN00_00_MD|52=20190709-07:51:36.182|56=NTPROUAT|10=196|
20190709-07:52:06.205244000 : 8=FIX.4.4|9=0064|35=0|49=NTPROUAT|56=ALFN00_00_MD|34=25|52=20190709-07:52:56.542|10=041|
20190709-07:52:06.205714000 : 8=FIX.4.4|9=64|35=0|34=24|49=ALFN00_00_MD|52=20190709-07:52:06.205|56=NTPROUAT|10=191|
20190709-07:52:36.212703000 : 8=FIX.4.4|9=0064|35=0|49=NTPROUAT|56=ALFN00_00_MD|34=26|52=20190709-07:53:26.556|10=045|
20190709-07:52:36.213017000 : 8=FIX.4.4|9=64|35=0|34=25|49=ALFN00_00_MD|52=20190709-07:52:36.212|56=NTPROUAT|10=193|
20190709-07:53:06.129401000 : 8=FIX.4.4|9=64|35=0|34=26|49=ALFN00_00_MD|52=20190709-07:53:06.129|56=NTPROUAT|10=199|
20190709-07:53:06.233660000 : 8=FIX.4.4|9=0064|35=0|49=NTPROUAT|56=ALFN00_00_MD|34=27|52=20190709-07:53:56.574|10=049|
20190709-07:53:36.259383000 : 8=FIX.4.4|9=0064|35=0|49=NTPROUAT|56=ALFN00_00_MD|34=28|52=20190709-07:54:26.593|10=049|
20190709-07:53:36.259900000 : 8=FIX.4.4|9=64|35=0|34=27|49=ALFN00_00_MD|52=20190709-07:53:36.259|56=NTPROUAT|10=207|
20190709-07:54:06.261192000 : 8=FIX.4.4|9=0064|35=0|49=NTPROUAT|56=ALFN00_00_MD|34=29|52=20190709-07:54:56.604|10=046|
20190709-07:54:06.261466000 : 8=FIX.4.4|9=64|35=0|34=28|49=ALFN00_00_MD|52=20190709-07:54:06.261|56=NTPROUAT|10=199|
20190709-07:54:36.176432000 : 8=FIX.4.4|9=0064|35=0|49=NTPROUAT|56=ALFN00_00_MD|34=30|52=20190709-07:55:26.518|10=040|
20190709-07:54:36.176774000 : 8=FIX.4.4|9=64|35=0|34=29|49=ALFN00_00_MD|52=20190709-07:54:36.176|56=NTPROUAT|10=208|
20190709-07:55:06.193192000 : 8=FIX.4.4|9=0064|35=0|49=NTPROUAT|56=ALFN00_00_MD|34=31|52=20190709-07:55:56.536|10=044|
20190709-07:55:06.193512000 : 8=FIX.4.4|9=64|35=0|34=30|49=ALFN00_00_MD|52=20190709-07:55:06.193|56=NTPROUAT|10=197|
20190709-07:55:36.054663000 : 8=FIX.4.4|9=64|35=0|34=31|49=ALFN00_00_MD|52=20190709-07:55:36.053|56=NTPROUAT|10=196|
20190709-07:55:36.215508000 : 8=FIX.4.4|9=0064|35=0|49=NTPROUAT|56=ALFN00_00_MD|34=32|52=20190709-07:56:26.558|10=047|
20190709-07:56:06.232018000 : 8=FIX.4.4|9=0064|35=0|49=NTPROUAT|56=ALFN00_00_MD|34=33|52=20190709-07:56:56.575|10=050|
20190709-07:56:06.232443000 : 8=FIX.4.4|9=64|35=0|34=32|49=ALFN00_00_MD|52=20190709-07:56:06.232|56=NTPROUAT|10=194|
20190709-07:56:36.252013000 : 8=FIX.4.4|9=0064|35=0|49=NTPROUAT|56=ALFN00_00_MD|34=34|52=20190709-07:57:26.594|10=050|
20190709-07:56:36.252426000 : 8=FIX.4.4|9=64|35=0|34=33|49=ALFN00_00_MD|52=20190709-07:56:36.252|56=NTPROUAT|10=200|
20190709-07:57:06.270805000 : 8=FIX.4.4|9=0064|35=0|49=NTPROUAT|56=ALFN00_00_MD|34=35|52=20190709-07:57:56.609|10=051|
20190709-07:57:06.271347000 : 8=FIX.4.4|9=64|35=0|34=34|49=ALFN00_00_MD|52=20190709-07:57:06.271|56=NTPROUAT|10=200|
20190709-07:57:36.182137000 : 8=FIX.4.4|9=0064|35=0|49=NTPROUAT|56=ALFN00_00_MD|34=36|52=20190709-07:58:26.525|10=047|
20190709-07:57:36.182298000 : 8=FIX.4.4|9=64|35=0|34=35|49=ALFN00_00_MD|52=20190709-07:57:36.182|56=NTPROUAT|10=205|
20190709-07:58:06.202345000 : 8=FIX.4.4|9=0064|35=0|49=NTPROUAT|56=ALFN00_00_MD|34=37|52=20190709-07:58:56.543|10=051|
20190709-07:58:06.202827000 : 8=FIX.4.4|9=64|35=0|34=36|49=ALFN00_00_MD|52=20190709-07:58:06.202|56=NTPROUAT|10=197|
20190709-07:58:36.224437000 : 8=FIX.4.4|9=0064|35=0|49=NTPROUAT|56=ALFN00_00_MD|34=38|52=20190709-07:59:26.566|10=055|
20190709-07:58:36.225017000 : 8=FIX.4.4|9=64|35=0|34=37|49=ALFN00_00_MD|52=20190709-07:58:36.224|56=NTPROUAT|10=205|
20190709-07:59:06.254995000 : 8=FIX.4.4|9=0064|35=0|49=NTPROUAT|56=ALFN00_00_MD|34=39|52=20190709-07:59:56.584|10=059|
20190709-07:59:06.255318000 : 8=FIX.4.4|9=64|35=0|34=38|49=ALFN00_00_MD|52=20190709-07:59:06.255|56=NTPROUAT|10=208|
20190709-07:59:36.259720000 : 8=FIX.4.4|9=0064|35=0|49=NTPROUAT|56=ALFN00_00_MD|34=40|52=20190709-08:00:26.602|10=026|
20190709-07:59:36.259932000 : 8=FIX.4.4|9=64|35=0|34=39|49=ALFN00_00_MD|52=20190709-07:59:36.259|56=NTPROUAT|10=216|
20190709-08:00:06.102153000 : 8=FIX.4.4|9=64|35=0|34=40|49=ALFN00_00_MD|52=20190709-08:00:06.101|56=NTPROUAT|10=178|
20190709-08:00:06.175569000 : 8=FIX.4.4|9=0064|35=0|49=NTPROUAT|56=ALFN00_00_MD|34=41|52=20190709-08:00:56.516|10=034|
20190709-08:00:36.195635000 : 8=FIX.4.4|9=0064|35=0|49=NTPROUAT|56=ALFN00_00_MD|34=42|52=20190709-08:01:26.537|10=036|
20190709-08:00:36.195984000 : 8=FIX.4.4|9=64|35=0|34=41|49=ALFN00_00_MD|52=20190709-08:00:36.195|56=NTPROUAT|10=195|
20190709-08:01:06.267328000 : 8=FIX.4.4|9=0064|35=0|49=NTPROUAT|56=ALFN00_00_MD|34=43|52=20190709-08:01:56.554|10=039|
20190709-08:01:06.267757000 : 8=FIX.4.4|9=64|35=0|34=42|49=ALFN00_00_MD|52=20190709-08:01:06.267|56=NTPROUAT|10=194|
20190709-08:01:36.255183000 : 8=FIX.4.4|9=0064|35=0|49=NTPROUAT|56=ALFN00_00_MD|34=44|52=20190709-08:02:26.571|10=037|
20190709-08:01:36.255631000 : 8=FIX.4.4|9=64|35=0|34=43|49=ALFN00_00_MD|52=20190709-08:01:36.255|56=NTPROUAT|10=195|
20190709-08:02:06.041957000 : 8=FIX.4.4|9=64|35=0|34=44|49=ALFN00_00_MD|52=20190709-08:02:06.041|56=NTPROUAT|10=187|
20190709-08:02:06.247773000 : 8=FIX.4.4|9=0064|35=0|49=NTPROUAT|56=ALFN00_00_MD|34=45|52=20190709-08:02:56.586|10=047|
20190709-08:02:36.261918000 : 8=FIX.4.4|9=0064|35=0|49=NTPROUAT|56=ALFN00_00_MD|34=46|52=20190709-08:03:26.601|10=034|
20190709-08:02:36.262430000 : 8=FIX.4.4|9=64|35=0|34=45|49=ALFN00_00_MD|52=20190709-08:02:36.262|56=NTPROUAT|10=196|
20190709-08:03:06.171915000 : 8=FIX.4.4|9=0064|35=0|49=NTPROUAT|56=ALFN00_00_MD|34=47|52=20190709-08:03:56.514|10=041|
20190709-08:03:06.172256000 : 8=FIX.4.4|9=64|35=0|34=46|49=ALFN00_00_MD|52=20190709-08:03:06.172|56=NTPROUAT|10=195|
20190709-08:03:36.068201000 : 8=FIX.4.4|9=64|35=0|34=47|49=ALFN00_00_MD|52=20190709-08:03:36.068|56=NTPROUAT|10=203|
20190709-08:03:36.191045000 : 8=FIX.4.4|9=0064|35=0|49=NTPROUAT|56=ALFN00_00_MD|34=48|52=20190709-08:04:26.533|10=041|
20190709-08:04:06.230411000 : 8=FIX.4.4|9=0064|35=0|49=NTPROUAT|56=ALFN00_00_MD|34=49|52=20190709-08:04:56.553|10=047|
20190709-08:04:06.230931000 : 8=FIX.4.4|9=64|35=0|34=48|49=ALFN00_00_MD|52=20190709-08:04:06.230|56=NTPROUAT|10=193|
20190709-08:04:36.229981000 : 8=FIX.4.4|9=0064|35=0|49=NTPROUAT|56=ALFN00_00_MD|34=50|52=20190709-08:05:26.572|10=038|
20190709-08:04:36.230214000 : 8=FIX.4.4|9=64|35=0|34=49|49=ALFN00_00_MD|52=20190709-08:04:36.230|56=NTPROUAT|10=197|
20190709-08:05:06.228350000 : 8=FIX.4.4|9=64|35=0|34=50|49=ALFN00_00_MD|52=20190709-08:05:06.228|56=NTPROUAT|10=194|
20190709-08:05:06.271329000 : 8=FIX.4.4|9=0064|35=0|49=NTPROUAT|56=ALFN00_00_MD|34=51|52=20190709-08:05:56.592|10=044|
20190709-08:05:36.096973000 : 8=FIX.4.4|9=64|35=0|34=51|49=ALFN00_00_MD|52=20190709-08:05:36.096|56=NTPROUAT|10=201|
20190709-08:05:36.269382000 : 8=FIX.4.4|9=0064|35=0|49=NTPROUAT|56=ALFN00_00_MD|34=52|52=20190709-08:06:26.612|10=036|
20190709-08:06:06.186530000 : 8=FIX.4.4|9=0064|35=0|49=NTPROUAT|56=ALFN00_00_MD|34=53|52=20190709-08:06:56.528|10=046|
20190709-08:06:06.186917000 : 8=FIX.4.4|9=64|35=0|34=52|49=ALFN00_00_MD|52=20190709-08:06:06.186|56=NTPROUAT|10=200|
20190709-08:06:36.203230000 : 8=FIX.4.4|9=0064|35=0|49=NTPROUAT|56=ALFN00_00_MD|34=54|52=20190709-08:07:26.545|10=044|
20190709-08:06:36.203679000 : 8=FIX.4.4|9=64|35=0|34=53|49=ALFN00_00_MD|52=20190709-08:06:36.203|56=NTPROUAT|10=194|
20190709-08:07:06.051231000 : 8=FIX.4.4|9=64|35=0|34=54|49=ALFN00_00_MD|52=20190709-08:07:06.051|56=NTPROUAT|10=194|
20190709-08:07:06.242322000 : 8=FIX.4.4|9=0064|35=0|49=NTPROUAT|56=ALFN00_00_MD|34=55|52=20190709-08:07:56.561|10=046|
20190709-08:07:36.256080000 : 8=FIX.4.4|9=0064|35=0|49=NTPROUAT|56=ALFN00_00_MD|34=56|52=20190709-08:08:26.584|10=050|
20190709-08:07:36.256333000 : 8=FIX.4.4|9=64|35=0|34=55|49=ALFN00_00_MD|52=20190709-08:07:36.256|56=NTPROUAT|10=205|
20190709-08:08:06.259246000 : 8=FIX.4.4|9=0064|35=0|49=NTPROUAT|56=ALFN00_00_MD|34=57|52=20190709-08:08:56.601|10=044|
20190709-08:08:06.259553000 : 8=FIX.4.4|9=64|35=0|34=56|49=ALFN00_00_MD|52=20190709-08:08:06.259|56=NTPROUAT|10=207|
20190709-08:08:36.127737000 : 8=FIX.4.4|9=64|35=0|34=57|49=ALFN00_00_MD|52=20190709-08:08:36.127|56=NTPROUAT|10=205|
20190709-08:08:36.187203000 : 8=FIX.4.4|9=0064|35=0|49=NTPROUAT|56=ALFN00_00_MD|34=58|52=20190709-08:09:26.520|10=043|
20190709-08:09:06.196341000 : 8=FIX.4.4|9=0064|35=0|49=NTPROUAT|56=ALFN00_00_MD|34=59|52=20190709-08:09:56.538|10=056|
20190709-08:09:06.196669000 : 8=FIX.4.4|9=64|35=0|34=58|49=ALFN00_00_MD|52=20190709-08:09:06.196|56=NTPROUAT|10=210|
20190709-08:09:36.220891000 : 8=FIX.4.4|9=0064|35=0|49=NTPROUAT|56=ALFN00_00_MD|34=60|52=20190709-08:10:26.561|10=033|
20190709-08:09:36.221361000 : 8=FIX.4.4|9=64|35=0|34=59|49=ALFN00_00_MD|52=20190709-08:09:36.221|56=NTPROUAT|10=203|
20190709-08:10:06.013933000 : 8=FIX.4.4|9=64|35=0|34=60|49=ALFN00_00_MD|52=20190709-08:10:06.013|56=NTPROUAT|10=183|
20190709-08:10:06.234637000 : 8=FIX.4.4|9=0064|35=0|49=NTPROUAT|56=ALFN00_00_MD|34=61|52=20190709-08:10:56.576|10=043|
20190709-08:10:36.254885000 : 8=FIX.4.4|9=0064|35=0|49=NTPROUAT|56=ALFN00_00_MD|34=62|52=20190709-08:11:26.596|10=044|
20190709-08:10:36.255215000 : 8=FIX.4.4|9=64|35=0|34=61|49=ALFN00_00_MD|52=20190709-08:10:36.255|56=NTPROUAT|10=195|
20190709-08:11:06.177441000 : 8=FIX.4.4|9=64|35=0|34=62|49=ALFN00_00_MD|52=20190709-08:11:06.177|56=NTPROUAT|10=197|
20190709-08:11:12.015894000 : 8=FIX.4.4|9=73|35=1|34=63|49=ALFN00_00_MD|52=20190709-08:11:12.015|56=NTPROUAT|112=TEST|10=205|
20190709-08:11:36.532478000 : 8=FIX.4.4|9=81|35=A|34=1|49=ALFN00_00_MD|52=20190709-08:11:36.532|56=NTPROUAT|98=0|108=30|141=Y|10=226|
20190709-08:11:36.538040000 : 8=FIX.4.4|9=0089|35=5|49=NTPROUAT|56=ALFN00_00_MD|34=67|52=20190709-09:04:12.329|58=Time accuracy problem|10=235|
20190709-08:12:36.136264000 : 8=FIX.4.4|9=81|35=A|34=1|49=ALFN00_00_MD|52=20190709-08:12:36.136|56=NTPROUAT|98=0|108=30|141=Y|10=227|
20190709-08:12:36.140423000 : 8=FIX.4.4|9=0089|35=5|49=NTPROUAT|56=ALFN00_00_MD|34=68|52=20190709-09:05:11.933|58=Time accuracy problem|10=237|
20190709-08:13:36.331123000 : 8=FIX.4.4|9=81|35=A|34=1|49=ALFN00_00_MD|52=20190709-08:13:36.330|56=NTPROUAT|98=0|108=30|141=Y|10=224|
20190709-08:13:36.335689000 : 8=FIX.4.4|9=0089|35=5|49=NTPROUAT|56=ALFN00_00_MD|34=69|52=20190709-09:06:12.127|58=Time accuracy problem|10=235|
20190709-08:14:36.459395000 : 8=FIX.4.4|9=81|35=A|34=1|49=ALFN00_00_MD|52=20190709-08:14:36.459|56=NTPROUAT|98=0|108=30|141=Y|10=237|
20190709-08:14:36.467190000 : 8=FIX.4.4|9=0089|35=5|49=NTPROUAT|56=ALFN00_00_MD|34=70|52=20190709-09:07:12.258|58=Time accuracy problem|10=233|
20190709-08:15:36.509065000 : 8=FIX.4.4|9=81|35=A|34=1|49=ALFN00_00_MD|52=20190709-08:15:36.508|56=NTPROUAT|98=0|108=30|141=Y|10=233|
20190709-08:15:36.517198000 : 8=FIX.4.4|9=0089|35=5|49=NTPROUAT|56=ALFN00_00_MD|34=71|52=20190709-09:08:12.309|58=Time accuracy problem|10=232|
20190709-08:16:36.419894000 : 8=FIX.4.4|9=81|35=A|34=1|49=ALFN00_00_MD|52=20190709-08:16:36.419|56=NTPROUAT|98=0|108=30|141=Y|10=235|
20190709-08:16:36.424942000 : 8=FIX.4.4|9=0089|35=5|49=NTPROUAT|56=ALFN00_00_MD|34=72|52=20190709-09:09:12.216|58=Time accuracy problem|10=231|
20190709-08:17:36.605610000 : 8=FIX.4.4|9=81|35=A|34=1|49=ALFN00_00_MD|52=20190709-08:17:36.605|56=NTPROUAT|98=0|108=30|141=Y|10=233|
20190709-08:17:36.613966000 : 8=FIX.4.4|9=0089|35=5|49=NTPROUAT|56=ALFN00_00_MD|34=73|52=20190709-09:10:12.402|58=Time accuracy problem|10=221|
20190709-08:18:36.480209000 : 8=FIX.4.4|9=81|35=A|34=1|49=ALFN00_00_MD|52=20190709-08:18:36.479|56=NTPROUAT|98=0|108=30|141=Y|10=243|
20190709-08:18:36.487658000 : 8=FIX.4.4|9=0089|35=5|49=NTPROUAT|56=ALFN00_00_MD|34=74|52=20190709-09:11:12.276|58=Time accuracy problem|10=232|
20190709-08:19:36.057039000 : 8=FIX.4.4|9=81|35=A|34=1|49=ALFN00_00_MD|52=20190709-08:19:36.056|56=NTPROUAT|98=0|108=30|141=Y|10=235|
20190709-08:19:36.066705000 : 8=FIX.4.4|9=0089|35=5|49=NTPROUAT|56=ALFN00_00_MD|34=75|52=20190709-09:12:11.854|58=Time accuracy problem|10=235|
20190709-08:20:36.555073000 : 8=FIX.4.4|9=81|35=A|34=1|49=ALFN00_00_MD|52=20190709-08:20:36.554|56=NTPROUAT|98=0|108=30|141=Y|10=230|
20190709-08:20:36.561828000 : 8=FIX.4.4|9=0089|35=5|49=NTPROUAT|56=ALFN00_00_MD|34=76|52=20190709-09:13:12.351|58=Time accuracy problem|10=230|
20190709-08:21:36.562603000 : 8=FIX.4.4|9=81|35=A|34=1|49=ALFN00_00_MD|52=20190709-08:21:36.562|56=NTPROUAT|98=0|108=30|141=Y|10=230|
20190709-08:21:36.568687000 : 8=FIX.4.4|9=0089|35=5|49=NTPROUAT|56=ALFN00_00_MD|34=77|52=20190709-09:14:12.359|58=Time accuracy problem|10=240|
20190709-08:22:36.378376000 : 8=FIX.4.4|9=81|35=A|34=1|49=ALFN00_00_MD|52=20190709-08:22:36.378|56=NTPROUAT|98=0|108=30|141=Y|10=236|
20190709-08:22:36.387648000 : 8=FIX.4.4|9=0089|35=5|49=NTPROUAT|56=ALFN00_00_MD|34=78|52=20190709-09:15:12.175|58=Time accuracy problem|10=238|
20190709-08:23:36.488217000 : 8=FIX.4.4|9=81|35=A|34=1|49=ALFN00_00_MD|52=20190709-08:23:36.487|56=NTPROUAT|98=0|108=30|141=Y|10=238|
20190709-08:23:36.497005000 : 8=FIX.4.4|9=0089|35=5|49=NTPROUAT|56=ALFN00_00_MD|34=79|52=20190709-09:16:12.289|58=Time accuracy problem|10=246|
20190709-08:23:49.644095000 : 8=FIX.4.4|9=81|35=A|34=1|49=ALFN00_00_MD|52=20190709-08:23:49.643|56=NTPROUAT|98=0|108=30|141=Y|10=236|
20190709-08:23:49.648442000 : 8=FIX.4.4|9=0089|35=5|49=NTPROUAT|56=ALFN00_00_MD|34=80|52=20190709-09:16:25.441|58=Time accuracy problem|10=232|
20190709-08:24:36.239410000 : 8=FIX.4.4|9=81|35=A|34=1|49=ALFN00_00_MD|52=20190709-08:24:36.239|56=NTPROUAT|98=0|108=30|141=Y|10=234|
20190709-08:24:36.245336000 : 8=FIX.4.4|9=0089|35=5|49=NTPROUAT|56=ALFN00_00_MD|34=81|52=20190709-09:17:12.037|58=Time accuracy problem|10=231|
20190709-08:25:36.064567000 : 8=FIX.4.4|9=81|35=A|34=1|49=ALFN00_00_MD|52=20190709-08:25:36.064|56=NTPROUAT|98=0|108=30|141=Y|10=231|
20190709-08:25:36.068722000 : 8=FIX.4.4|9=0089|35=5|49=NTPROUAT|56=ALFN00_00_MD|34=82|52=20190709-09:18:11.861|58=Time accuracy problem|10=237|
20190709-08:26:36.054539000 : 8=FIX.4.4|9=81|35=A|34=1|49=ALFN00_00_MD|52=20190709-08:26:36.054|56=NTPROUAT|98=0|108=30|141=Y|10=231|
20190709-08:26:36.059093000 : 8=FIX.4.4|9=0089|35=5|49=NTPROUAT|56=ALFN00_00_MD|34=83|52=20190709-09:19:11.851|58=Time accuracy problem|10=238|
20190709-08:27:36.157153000 : 8=FIX.4.4|9=81|35=A|34=1|49=ALFN00_00_MD|52=20190709-08:27:36.156|56=NTPROUAT|98=0|108=30|141=Y|10=235|
20190709-08:27:36.163025000 : 8=FIX.4.4|9=0089|35=5|49=NTPROUAT|56=ALFN00_00_MD|34=84|52=20190709-09:20:11.954|58=Time accuracy problem|10=235|
20190709-08:28:36.113651000 : 8=FIX.4.4|9=81|35=A|34=1|49=ALFN00_00_MD|52=20190709-08:28:36.113|56=NTPROUAT|98=0|108=30|141=Y|10=229|
20190709-08:28:36.117953000 : 8=FIX.4.4|9=0089|35=5|49=NTPROUAT|56=ALFN00_00_MD|34=85|52=20190709-09:21:11.910|58=Time accuracy problem|10=229|
20190709-08:29:36.177500000 : 8=FIX.4.4|9=81|35=A|34=1|49=ALFN00_00_MD|52=20190709-08:29:36.177|56=NTPROUAT|98=0|108=30|141=Y|10=240|
20190709-08:29:36.182539000 : 8=FIX.4.4|9=0089|35=5|49=NTPROUAT|56=ALFN00_00_MD|34=86|52=20190709-09:22:11.974|58=Time accuracy problem|10=241|
20190709-08:30:36.301181000 : 8=FIX.4.4|9=81|35=A|34=1|49=ALFN00_00_MD|52=20190709-08:30:36.300|56=NTPROUAT|98=0|108=30|141=Y|10=220|
20190709-08:30:36.308322000 : 8=FIX.4.4|9=0089|35=5|49=NTPROUAT|56=ALFN00_00_MD|34=87|52=20190709-09:23:12.097|58=Time accuracy problem|10=240|
20190709-08:31:36.332875000 : 8=FIX.4.4|9=81|35=A|34=1|49=ALFN00_00_MD|52=20190709-08:31:36.332|56=NTPROUAT|98=0|108=30|141=Y|10=226|
20190709-08:31:36.349070000 : 8=FIX.4.4|9=0089|35=5|49=NTPROUAT|56=ALFN00_00_MD|34=88|52=20190709-09:24:12.129|58=Time accuracy problem|10=238|
20190709-08:32:36.307646000 : 8=FIX.4.4|9=81|35=A|34=1|49=ALFN00_00_MD|52=20190709-08:32:36.307|56=NTPROUAT|98=0|108=30|141=Y|10=229|
20190709-08:32:36.311958000 : 8=FIX.4.4|9=0089|35=5|49=NTPROUAT|56=ALFN00_00_MD|34=89|52=20190709-09:25:12.104|58=Time accuracy problem|10=233|
20190709-08:33:36.011980000 : 8=FIX.4.4|9=81|35=A|34=1|49=ALFN00_00_MD|52=20190709-08:33:36.011|56=NTPROUAT|98=0|108=30|141=Y|10=222|
20190709-08:33:36.015556000 : 8=FIX.4.4|9=0089|35=5|49=NTPROUAT|56=ALFN00_00_MD|34=90|52=20190709-09:26:11.808|58=Time accuracy problem|10=236|
20190709-08:34:36.442450000 : 8=FIX.4.4|9=81|35=A|34=1|49=ALFN00_00_MD|52=20190709-08:34:36.442|56=NTPROUAT|98=0|108=30|141=Y|10=231|
20190709-08:34:36.448132000 : 8=FIX.4.4|9=0089|35=5|49=NTPROUAT|56=ALFN00_00_MD|34=91|52=20190709-09:27:12.239|58=Time accuracy problem|10=237|
20190709-08:35:36.442349000 : 8=FIX.4.4|9=81|35=A|34=1|49=ALFN00_00_MD|52=20190709-08:35:36.441|56=NTPROUAT|98=0|108=30|141=Y|10=231|
20190709-08:35:36.455902000 : 8=FIX.4.4|9=0089|35=5|49=NTPROUAT|56=ALFN00_00_MD|34=92|52=20190709-09:28:12.239|58=Time accuracy problem|10=239|
20190709-08:36:36.063568000 : 8=FIX.4.4|9=81|35=A|34=1|49=ALFN00_00_MD|52=20190709-08:36:36.063|56=NTPROUAT|98=0|108=30|141=Y|10=232|
20190709-08:36:36.073141000 : 8=FIX.4.4|9=0089|35=5|49=NTPROUAT|56=ALFN00_00_MD|34=93|52=20190709-09:29:11.860|58=Time accuracy problem|10=240|
20190709-08:37:36.335387000 : 8=FIX.4.4|9=81|35=A|34=1|49=ALFN00_00_MD|52=20190709-08:37:36.334|56=NTPROUAT|98=0|108=30|141=Y|10=234|
20190709-08:37:36.347056000 : 8=FIX.4.4|9=0089|35=5|49=NTPROUAT|56=ALFN00_00_MD|34=94|52=20190709-09:30:12.132|58=Time accuracy problem|10=226|
20190709-08:38:36.219065000 : 8=FIX.4.4|9=81|35=A|34=1|49=ALFN00_00_MD|52=20190709-08:38:36.218|56=NTPROUAT|98=0|108=30|141=Y|10=236|
20190709-08:38:36.226824000 : 8=FIX.4.4|9=0089|35=5|49=NTPROUAT|56=ALFN00_00_MD|34=95|52=20190709-09:31:12.019|58=Time accuracy problem|10=232|
20190709-08:39:36.247049000 : 8=FIX.4.4|9=81|35=A|34=1|49=ALFN00_00_MD|52=20190709-08:39:36.246|56=NTPROUAT|98=0|108=30|141=Y|10=238|
20190709-08:39:36.253362000 : 8=FIX.4.4|9=0089|35=5|49=NTPROUAT|56=ALFN00_00_MD|34=96|52=20190709-09:32:12.044|58=Time accuracy problem|10=232|
20190709-08:40:36.142723000 : 8=FIX.4.4|9=81|35=A|34=1|49=ALFN00_00_MD|52=20190709-08:40:36.142|56=NTPROUAT|98=0|108=30|141=Y|10=225|
20190709-08:40:36.147283000 : 8=FIX.4.4|9=0089|35=5|49=NTPROUAT|56=ALFN00_00_MD|34=97|52=20190709-09:33:11.939|58=Time accuracy problem|10=246|
20190709-08:41:36.227749000 : 8=FIX.4.4|9=81|35=A|34=1|49=ALFN00_00_MD|52=20190709-08:41:36.227|56=NTPROUAT|98=0|108=30|141=Y|10=230|
20190709-08:41:36.233658000 : 8=FIX.4.4|9=0089|35=5|49=NTPROUAT|56=ALFN00_00_MD|34=98|52=20190709-09:34:12.024|58=Time accuracy problem|10=234|
20190709-08:42:36.211936000 : 8=FIX.4.4|9=81|35=A|34=1|49=ALFN00_00_MD|52=20190709-08:42:36.211|56=NTPROUAT|98=0|108=30|141=Y|10=224|
20190709-08:42:36.217700000 : 8=FIX.4.4|9=0089|35=5|49=NTPROUAT|56=ALFN00_00_MD|34=99|52=20190709-09:35:12.008|58=Time accuracy problem|10=238|
20190709-08:43:36.018392000 : 8=FIX.4.4|9=81|35=A|34=1|49=ALFN00_00_MD|52=20190709-08:43:36.017|56=NTPROUAT|98=0|108=30|141=Y|10=229|
20190709-08:43:36.029836000 : 8=FIX.4.4|9=0090|35=5|49=NTPROUAT|56=ALFN00_00_MD|34=100|52=20190709-09:36:11.817|58=Time accuracy problem|10=013|
20190709-08:44:36.033712000 : 8=FIX.4.4|9=81|35=A|34=1|49=ALFN00_00_MD|52=20190709-08:44:36.033|56=NTPROUAT|98=0|108=30|141=Y|10=228|
20190709-08:44:36.040170000 : 8=FIX.4.4|9=0090|35=5|49=NTPROUAT|56=ALFN00_00_MD|34=101|52=20190709-09:37:11.830|58=Time accuracy problem|10=010|
20190709-08:45:36.175936000 : 8=FIX.4.4|9=81|35=A|34=1|49=ALFN00_00_MD|52=20190709-08:45:36.174|56=NTPROUAT|98=0|108=30|141=Y|10=235|
20190709-08:45:36.184525000 : 8=FIX.4.4|9=0090|35=5|49=NTPROUAT|56=ALFN00_00_MD|34=102|52=20190709-09:38:11.974|58=Time accuracy problem|10=021|
20190709-08:46:36.160973000 : 8=FIX.4.4|9=81|35=A|34=1|49=ALFN00_00_MD|52=20190709-08:46:36.160|56=NTPROUAT|98=0|108=30|141=Y|10=231|
20190709-08:46:36.166455000 : 8=FIX.4.4|9=0090|35=5|49=NTPROUAT|56=ALFN00_00_MD|34=103|52=20190709-09:39:11.957|58=Time accuracy problem|10=024|
20190709-08:47:36.203544000 : 8=FIX.4.4|9=81|35=A|34=1|49=ALFN00_00_MD|52=20190709-08:47:36.203|56=NTPROUAT|98=0|108=30|141=Y|10=230|
20190709-08:47:36.207306000 : 8=FIX.4.4|9=0090|35=5|49=NTPROUAT|56=ALFN00_00_MD|34=104|52=20190709-09:40:12.000|58=Time accuracy problem|10=253|
20190709-08:48:36.166769000 : 8=FIX.4.4|9=81|35=A|34=1|49=ALFN00_00_MD|52=20190709-08:48:36.166|56=NTPROUAT|98=0|108=30|141=Y|10=239|
20190709-08:48:36.174451000 : 8=FIX.4.4|9=0090|35=5|49=NTPROUAT|56=ALFN00_00_MD|34=105|52=20190709-09:41:11.963|58=Time accuracy problem|10=016|
20190709-08:49:36.233713000 : 8=FIX.4.4|9=81|35=A|34=1|49=ALFN00_00_MD|52=20190709-08:49:36.233|56=NTPROUAT|98=0|108=30|141=Y|10=235|
20190709-08:49:36.241429000 : 8=FIX.4.4|9=0090|35=5|49=NTPROUAT|56=ALFN00_00_MD|34=106|52=20190709-09:42:12.030|58=Time accuracy problem|10=004|
20190709-08:50:36.012874000 : 8=FIX.4.4|9=81|35=A|34=1|49=ALFN00_00_MD|52=20190709-08:50:36.012|56=NTPROUAT|98=0|108=30|141=Y|10=222|
20190709-08:50:36.018234000 : 8=FIX.4.4|9=0090|35=5|49=NTPROUAT|56=ALFN00_00_MD|34=107|52=20190709-09:43:11.809|58=Time accuracy problem|10=019|
20190709-08:51:36.048695000 : 8=FIX.4.4|9=81|35=A|34=1|49=ALFN00_00_MD|52=20190709-08:51:36.048|56=NTPROUAT|98=0|108=30|141=Y|10=232|
20190709-08:51:36.053619000 : 8=FIX.4.4|9=0090|35=5|49=NTPROUAT|56=ALFN00_00_MD|34=108|52=20190709-09:44:11.845|58=Time accuracy problem|10=021|
20190709-08:52:36.069601000 : 8=FIX.4.4|9=81|35=A|34=1|49=ALFN00_00_MD|52=20190709-08:52:36.069|56=NTPROUAT|98=0|108=30|141=Y|10=236|
20190709-08:52:36.074940000 : 8=FIX.4.4|9=0090|35=5|49=NTPROUAT|56=ALFN00_00_MD|34=109|52=20190709-09:45:11.866|58=Time accuracy problem|10=026|
20190709-08:53:36.074479000 : 8=FIX.4.4|9=81|35=A|34=1|49=ALFN00_00_MD|52=20190709-08:53:36.074|56=NTPROUAT|98=0|108=30|141=Y|10=233|
20190709-08:53:36.079187000 : 8=FIX.4.4|9=0090|35=5|49=NTPROUAT|56=ALFN00_00_MD|34=110|52=20190709-09:46:11.871|58=Time accuracy problem|10=015|
20190709-08:54:36.055032000 : 8=FIX.4.4|9=81|35=A|34=1|49=ALFN00_00_MD|52=20190709-08:54:36.054|56=NTPROUAT|98=0|108=30|141=Y|10=232|
20190709-08:54:36.060511000 : 8=FIX.4.4|9=0090|35=5|49=NTPROUAT|56=ALFN00_00_MD|34=111|52=20190709-09:47:11.851|58=Time accuracy problem|10=015|
20190709-08:55:36.870632000 : 8=FIX.4.4|9=81|35=A|34=1|49=ALFN00_00_MD|52=20190709-08:55:36.870|56=NTPROUAT|98=0|108=30|141=Y|10=239|
20190709-08:55:36.874947000 : 8=FIX.4.4|9=0090|35=5|49=NTPROUAT|56=ALFN00_00_MD|34=112|52=20190709-09:48:12.667|58=Time accuracy problem|10=023|
20190709-08:56:36.403575000 : 8=FIX.4.4|9=81|35=A|34=1|49=ALFN00_00_MD|52=20190709-08:56:36.396|56=NTPROUAT|98=0|108=30|141=Y|10=243|
20190709-08:56:36.412505000 : 8=FIX.4.4|9=0090|35=5|49=NTPROUAT|56=ALFN00_00_MD|34=113|52=20190709-09:49:12.201|58=Time accuracy problem|10=009|
20190709-08:57:36.157002000 : 8=FIX.4.4|9=81|35=A|34=1|49=ALFN00_00_MD|52=20190709-08:57:36.156|56=NTPROUAT|98=0|108=30|141=Y|10=238|
20190709-08:57:36.164668000 : 8=FIX.4.4|9=0090|35=5|49=NTPROUAT|56=ALFN00_00_MD|34=114|52=20190709-09:50:11.954|58=Time accuracy problem|10=016|
20190709-08:58:36.567701000 : 8=FIX.4.4|9=81|35=A|34=1|49=ALFN00_00_MD|52=20190709-08:58:36.567|56=NTPROUAT|98=0|108=30|141=Y|10=245|
20190709-08:58:36.574766000 : 8=FIX.4.4|9=0090|35=5|49=NTPROUAT|56=ALFN00_00_MD|34=115|52=20190709-09:51:12.364|58=Time accuracy problem|10=014|
20190709-08:59:36.574024000 : 8=FIX.4.4|9=81|35=A|34=1|49=ALFN00_00_MD|52=20190709-08:59:36.573|56=NTPROUAT|98=0|108=30|141=Y|10=243|
20190709-08:59:36.578831000 : 8=FIX.4.4|9=0090|35=5|49=NTPROUAT|56=ALFN00_00_MD|34=116|52=20190709-09:52:12.370|58=Time accuracy problem|10=013|
20190709-09:00:36.223934000 : 8=FIX.4.4|9=81|35=A|34=1|49=ALFN00_00_MD|52=20190709-09:00:36.223|56=NTPROUAT|98=0|108=30|141=Y|10=222|
20190709-09:00:36.228345000 : 8=FIX.4.4|9=0090|35=5|49=NTPROUAT|56=ALFN00_00_MD|34=117|52=20190709-09:53:12.020|58=Time accuracy problem|10=007|
20190709-09:01:36.449307000 : 8=FIX.4.4|9=81|35=A|34=1|49=ALFN00_00_MD|52=20190709-09:01:36.449|56=NTPROUAT|98=0|108=30|141=Y|10=233|
20190709-09:01:36.453038000 : 8=FIX.4.4|9=0090|35=5|49=NTPROUAT|56=ALFN00_00_MD|34=118|52=20190709-09:54:12.245|58=Time accuracy problem|10=018|
20190709-09:02:36.279327000 : 8=FIX.4.4|9=81|35=A|34=1|49=ALFN00_00_MD|52=20190709-09:02:36.279|56=NTPROUAT|98=0|108=30|141=Y|10=235|
20190709-09:02:36.285621000 : 8=FIX.4.4|9=0090|35=5|49=NTPROUAT|56=ALFN00_00_MD|34=119|52=20190709-09:55:12.076|58=Time accuracy problem|10=022|
20190709-09:03:36.589663000 : 8=FIX.4.4|9=81|35=A|34=1|49=ALFN00_00_MD|52=20190709-09:03:36.589|56=NTPROUAT|98=0|108=30|141=Y|10=240|
20190709-09:03:36.597441000 : 8=FIX.4.4|9=0090|35=5|49=NTPROUAT|56=ALFN00_00_MD|34=120|52=20190709-09:56:12.386|58=Time accuracy problem|10=019|
20190709-09:04:36.508004000 : 8=FIX.4.4|9=81|35=A|34=1|49=ALFN00_00_MD|52=20190709-09:04:36.507|56=NTPROUAT|98=0|108=30|141=Y|10=231|
20190709-09:04:36.513045000 : 8=FIX.4.4|9=0090|35=5|49=NTPROUAT|56=ALFN00_00_MD|34=121|52=20190709-09:57:12.304|58=Time accuracy problem|10=011|
20190709-09:05:36.080140000 : 8=FIX.4.4|9=81|35=A|34=1|49=ALFN00_00_MD|52=20190709-09:05:36.079|56=NTPROUAT|98=0|108=30|141=Y|10=236|
20190709-09:05:36.087141000 : 8=FIX.4.4|9=0090|35=5|49=NTPROUAT|56=ALFN00_00_MD|34=122|52=20190709-09:58:11.876|58=Time accuracy problem|10=026|
20190709-09:06:36.642733000 : 8=FIX.4.4|9=81|35=A|34=1|49=ALFN00_00_MD|52=20190709-09:06:36.642|56=NTPROUAT|98=0|108=30|141=Y|10=233|
20190709-09:06:36.659061000 : 8=FIX.4.4|9=0090|35=5|49=NTPROUAT|56=ALFN00_00_MD|34=123|52=20190709-09:59:12.439|58=Time accuracy problem|10=024|
20190709-09:07:36.724885000 : 8=FIX.4.4|9=81|35=A|34=1|49=ALFN00_00_MD|52=20190709-09:07:36.721|56=NTPROUAT|98=0|108=30|141=Y|10=232|
20190709-09:07:36.737022000 : 8=FIX.4.4|9=0090|35=5|49=NTPROUAT|56=ALFN00_00_MD|34=124|52=20190709-10:00:12.521|58=Time accuracy problem|10=251|
20190709-09:08:36.433471000 : 8=FIX.4.4|9=81|35=A|34=1|49=ALFN00_00_MD|52=20190709-09:08:36.433|56=NTPROUAT|98=0|108=30|141=Y|10=233|
20190709-09:08:36.438307000 : 8=FIX.4.4|9=0090|35=5|49=NTPROUAT|56=ALFN00_00_MD|34=125|52=20190709-10:01:12.230|58=Time accuracy problem|10=250|
20190709-09:09:36.231821000 : 8=FIX.4.4|9=81|35=A|34=1|49=ALFN00_00_MD|52=20190709-09:09:36.231|56=NTPROUAT|98=0|108=30|141=Y|10=230|
20190709-09:09:36.246288000 : 8=FIX.4.4|9=0090|35=5|49=NTPROUAT|56=ALFN00_00_MD|34=126|52=20190709-10:02:12.035|58=Time accuracy problem|10=255|
20190709-09:10:36.176241000 : 8=FIX.4.4|9=81|35=A|34=1|49=ALFN00_00_MD|52=20190709-09:10:36.176|56=NTPROUAT|98=0|108=30|141=Y|10=230|
20190709-09:10:36.180838000 : 8=FIX.4.4|9=0090|35=5|49=NTPROUAT|56=ALFN00_00_MD|34=127|52=20190709-10:03:11.972|58=Time accuracy problem|10=010|
20190709-09:11:36.458879000 : 8=FIX.4.4|9=81|35=A|34=1|49=ALFN00_00_MD|52=20190709-09:11:36.458|56=NTPROUAT|98=0|108=30|141=Y|10=234|
20190709-09:11:36.463460000 : 8=FIX.4.4|9=0090|35=5|49=NTPROUAT|56=ALFN00_00_MD|34=128|52=20190709-10:04:12.255|58=Time accuracy problem|10=007|
20190709-09:12:36.294507000 : 8=FIX.4.4|9=81|35=A|34=1|49=ALFN00_00_MD|52=20190709-09:12:36.294|56=NTPROUAT|98=0|108=30|141=Y|10=233|
20190709-09:12:36.298937000 : 8=FIX.4.4|9=0090|35=5|49=NTPROUAT|56=ALFN00_00_MD|34=129|52=20190709-10:05:12.091|58=Time accuracy problem|10=007|
20190709-09:13:36.517123000 : 8=FIX.4.4|9=81|35=A|34=1|49=ALFN00_00_MD|52=20190709-09:13:36.516|56=NTPROUAT|98=0|108=30|141=Y|10=231|
20190709-09:13:36.522321000 : 8=FIX.4.4|9=0090|35=5|49=NTPROUAT|56=ALFN00_00_MD|34=130|52=20190709-10:06:12.313|58=Time accuracy problem|10=253|
20190709-09:14:36.258692000 : 8=FIX.4.4|9=81|35=A|34=1|49=ALFN00_00_MD|52=20190709-09:14:36.258|56=NTPROUAT|98=0|108=30|141=Y|10=235|
20190709-09:14:36.270241000 : 8=FIX.4.4|9=0090|35=5|49=NTPROUAT|56=ALFN00_00_MD|34=131|52=20190709-10:07:12.055|58=Time accuracy problem|10=002|
20190709-09:15:36.385772000 : 8=FIX.4.4|9=81|35=A|34=1|49=ALFN00_00_MD|52=20190709-09:15:36.385|56=NTPROUAT|98=0|108=30|141=Y|10=237|
20190709-09:15:36.391288000 : 8=FIX.4.4|9=0090|35=5|49=NTPROUAT|56=ALFN00_00_MD|34=132|52=20190709-10:08:12.183|58=Time accuracy problem|10=006|
20190709-09:16:36.278597000 : 8=FIX.4.4|9=81|35=A|34=1|49=ALFN00_00_MD|52=20190709-09:16:36.278|56=NTPROUAT|98=0|108=30|141=Y|10=239|
20190709-09:16:36.288142000 : 8=FIX.4.4|9=0090|35=5|49=NTPROUAT|56=ALFN00_00_MD|34=133|52=20190709-10:09:12.076|58=Time accuracy problem|10=009|
20190709-09:17:36.483232000 : 8=FIX.4.4|9=81|35=A|34=1|49=ALFN00_00_MD|52=20190709-09:17:36.483|56=NTPROUAT|98=0|108=30|141=Y|10=238|
20190709-09:17:36.488719000 : 8=FIX.4.4|9=0090|35=5|49=NTPROUAT|56=ALFN00_00_MD|34=134|52=20190709-10:10:12.279|58=Time accuracy problem|10=007|
20190709-09:18:36.202821000 : 8=FIX.4.4|9=81|35=A|34=1|49=ALFN00_00_MD|52=20190709-09:18:36.202|56=NTPROUAT|98=0|108=30|141=Y|10=228|
20190709-09:18:36.208764000 : 8=FIX.4.4|9=0090|35=5|49=NTPROUAT|56=ALFN00_00_MD|34=135|52=20190709-10:11:12.001|58=Time accuracy problem|10=248|
20190709-09:19:36.246388000 : 8=FIX.4.4|9=81|35=A|34=1|49=ALFN00_00_MD|52=20190709-09:19:36.246|56=NTPROUAT|98=0|108=30|141=Y|10=237|
20190709-09:19:36.256007000 : 8=FIX.4.4|9=0090|35=5|49=NTPROUAT|56=ALFN00_00_MD|34=136|52=20190709-10:12:12.042|58=Time accuracy problem|10=255|
20190709-09:20:36.606212000 : 8=FIX.4.4|9=81|35=A|34=1|49=ALFN00_00_MD|52=20190709-09:20:36.606|56=NTPROUAT|98=0|108=30|141=Y|10=229|
20190709-09:20:36.612224000 : 8=FIX.4.4|9=0090|35=5|49=NTPROUAT|56=ALFN00_00_MD|34=137|52=20190709-10:13:12.403|58=Time accuracy problem|10=002|
20190709-09:21:36.517250000 : 8=FIX.4.4|9=81|35=A|34=1|49=ALFN00_00_MD|52=20190709-09:21:36.517|56=NTPROUAT|98=0|108=30|141=Y|10=231|
20190709-09:21:36.521415000 : 8=FIX.4.4|9=0090|35=5|49=NTPROUAT|56=ALFN00_00_MD|34=138|52=20190709-10:14:12.313|58=Time accuracy problem|10=004|
20190709-09:22:36.693265000 : 8=FIX.4.4|9=81|35=A|34=1|49=ALFN00_00_MD|52=20190709-09:22:36.693|56=NTPROUAT|98=0|108=30|141=Y|10=237|
20190709-09:22:36.700822000 : 8=FIX.4.4|9=0090|35=5|49=NTPROUAT|56=ALFN00_00_MD|34=139|52=20190709-10:15:12.493|58=Time accuracy problem|10=015|
20190709-09:23:36.404475000 : 8=FIX.4.4|9=81|35=A|34=1|49=ALFN00_00_MD|52=20190709-09:23:36.404|56=NTPROUAT|98=0|108=30|141=Y|10=228|
20190709-09:23:36.415304000 : 8=FIX.4.4|9=0090|35=5|49=NTPROUAT|56=ALFN00_00_MD|34=140|52=20190709-10:16:12.207|58=Time accuracy problem|10=001|
20190709-09:24:36.294147000 : 8=FIX.4.4|9=81|35=A|34=1|49=ALFN00_00_MD|52=20190709-09:24:36.293|56=NTPROUAT|98=0|108=30|141=Y|10=235|
20190709-09:24:36.328731000 : 8=FIX.4.4|9=0090|35=5|49=NTPROUAT|56=ALFN00_00_MD|34=141|52=20190709-10:17:12.090|58=Time accuracy problem|10=003|
20190709-09:25:36.449629000 : 8=FIX.4.4|9=81|35=A|34=1|49=ALFN00_00_MD|52=20190709-09:25:36.449|56=NTPROUAT|98=0|108=30|141=Y|10=239|
20190709-09:25:36.455136000 : 8=FIX.4.4|9=0090|35=5|49=NTPROUAT|56=ALFN00_00_MD|34=142|52=20190709-10:18:12.247|58=Time accuracy problem|10=009|
20190709-09:26:36.041467000 : 8=FIX.4.4|9=81|35=A|34=1|49=ALFN00_00_MD|52=20190709-09:26:36.041|56=NTPROUAT|98=0|108=30|141=Y|10=228|
20190709-09:26:36.047519000 : 8=FIX.4.4|9=0090|35=5|49=NTPROUAT|56=ALFN00_00_MD|34=143|52=20190709-10:19:11.838|58=Time accuracy problem|10=016|
20190709-09:27:36.277763000 : 8=FIX.4.4|9=81|35=A|34=1|49=ALFN00_00_MD|52=20190709-09:27:36.277|56=NTPROUAT|98=0|108=30|141=Y|10=240|
20190709-09:27:36.285125000 : 8=FIX.4.4|9=0090|35=5|49=NTPROUAT|56=ALFN00_00_MD|34=144|52=20190709-10:20:12.074|58=Time accuracy problem|10=002|
20190709-09:28:36.652801000 : 8=FIX.4.4|9=81|35=A|34=1|49=ALFN00_00_MD|52=20190709-09:28:36.652|56=NTPROUAT|98=0|108=30|141=Y|10=238|
20190709-09:28:36.656432000 : 8=FIX.4.4|9=0090|35=5|49=NTPROUAT|56=ALFN00_00_MD|34=145|52=20190709-10:21:12.449|58=Time accuracy problem|10=010|
20190709-09:29:36.453133000 : 8=FIX.4.4|9=81|35=A|34=1|49=ALFN00_00_MD|52=20190709-09:29:36.452|56=NTPROUAT|98=0|108=30|141=Y|10=237|
20190709-09:29:36.457152000 : 8=FIX.4.4|9=0090|35=5|49=NTPROUAT|56=ALFN00_00_MD|34=146|52=20190709-10:22:12.249|58=Time accuracy problem|10=010|
20190709-09:30:36.416582000 : 8=FIX.4.4|9=81|35=A|34=1|49=ALFN00_00_MD|52=20190709-09:30:36.416|56=NTPROUAT|98=0|108=30|141=Y|10=229|
20190709-09:30:36.422546000 : 8=FIX.4.4|9=0090|35=5|49=NTPROUAT|56=ALFN00_00_MD|34=147|52=20190709-10:23:12.213|58=Time accuracy problem|10=003|
20190709-09:31:36.471175000 : 8=FIX.4.4|9=81|35=A|34=1|49=ALFN00_00_MD|52=20190709-09:31:36.470|56=NTPROUAT|98=0|108=30|141=Y|10=230|
20190709-09:31:36.476770000 : 8=FIX.4.4|9=0090|35=5|49=NTPROUAT|56=ALFN00_00_MD|34=148|52=20190709-10:24:12.268|58=Time accuracy problem|10=015|
20190709-09:32:36.564122000 : 8=FIX.4.4|9=81|35=A|34=1|49=ALFN00_00_MD|52=20190709-09:32:36.562|56=NTPROUAT|98=0|108=30|141=Y|10=233|
20190709-09:32:36.569706000 : 8=FIX.4.4|9=0090|35=5|49=NTPROUAT|56=ALFN00_00_MD|34=149|52=20190709-10:25:12.361|58=Time accuracy problem|10=011|
20190709-09:33:36.471200000 : 8=FIX.4.4|9=81|35=A|34=1|49=ALFN00_00_MD|52=20190709-09:33:36.471|56=NTPROUAT|98=0|108=30|141=Y|10=233|
20190709-09:33:36.480013000 : 8=FIX.4.4|9=0090|35=5|49=NTPROUAT|56=ALFN00_00_MD|34=150|52=20190709-10:26:12.268|58=Time accuracy problem|10=010|
20190709-09:34:36.408688000 : 8=FIX.4.4|9=81|35=A|34=1|49=ALFN00_00_MD|52=20190709-09:34:36.408|56=NTPROUAT|98=0|108=30|141=Y|10=234|
20190709-09:34:36.413766000 : 8=FIX.4.4|9=0090|35=5|49=NTPROUAT|56=ALFN00_00_MD|34=151|52=20190709-10:27:12.205|58=Time accuracy problem|10=003|
20190709-09:35:36.360186000 : 8=FIX.4.4|9=81|35=A|34=1|49=ALFN00_00_MD|52=20190709-09:35:36.359|56=NTPROUAT|98=0|108=30|141=Y|10=240|
20190709-09:35:36.369287000 : 8=FIX.4.4|9=0090|35=5|49=NTPROUAT|56=ALFN00_00_MD|34=152|52=20190709-10:28:12.157|58=Time accuracy problem|10=011|
20190709-09:36:36.165643000 : 8=FIX.4.4|9=81|35=A|34=1|49=ALFN00_00_MD|52=20190709-09:36:36.165|56=NTPROUAT|98=0|108=30|141=Y|10=236|
20190709-09:36:36.171419000 : 8=FIX.4.4|9=0090|35=5|49=NTPROUAT|56=ALFN00_00_MD|34=153|52=20190709-10:29:11.963|58=Time accuracy problem|10=017|
20190709-09:37:36.502126000 : 8=FIX.4.4|9=81|35=A|34=1|49=ALFN00_00_MD|52=20190709-09:37:36.501|56=NTPROUAT|98=0|108=30|141=Y|10=231|
20190709-09:37:36.512297000 : 8=FIX.4.4|9=0090|35=5|49=NTPROUAT|56=ALFN00_00_MD|34=154|52=20190709-10:30:12.305|58=Time accuracy problem|10=001|
20190709-09:38:36.245556000 : 8=FIX.4.4|9=81|35=A|34=1|49=ALFN00_00_MD|52=20190709-09:38:36.245|56=NTPROUAT|98=0|108=30|141=Y|10=237|
20190709-09:38:36.249784000 : 8=FIX.4.4|9=0090|35=5|49=NTPROUAT|56=ALFN00_00_MD|34=155|52=20190709-10:31:12.042|58=Time accuracy problem|10=001|
20190709-09:39:36.585207000 : 8=FIX.4.4|9=81|35=A|34=1|49=ALFN00_00_MD|52=20190709-09:39:36.582|56=NTPROUAT|98=0|108=30|141=Y|10=242|
20190709-09:39:36.601836000 : 8=FIX.4.4|9=0090|35=5|49=NTPROUAT|56=ALFN00_00_MD|34=156|52=20190709-10:32:12.382|58=Time accuracy problem|10=010|
20190709-09:40:36.571194000 : 8=FIX.4.4|9=81|35=A|34=1|49=ALFN00_00_MD|52=20190709-09:40:36.571|56=NTPROUAT|98=0|108=30|141=Y|10=232|
20190709-09:40:36.580810000 : 8=FIX.4.4|9=0090|35=5|49=NTPROUAT|56=ALFN00_00_MD|34=157|52=20190709-10:33:12.368|58=Time accuracy problem|10=016|
20190709-09:41:36.319937000 : 8=FIX.4.4|9=81|35=A|34=1|49=ALFN00_00_MD|52=20190709-09:41:36.319|56=NTPROUAT|98=0|108=30|141=Y|10=233|
20190709-09:41:36.324138000 : 8=FIX.4.4|9=0090|35=5|49=NTPROUAT|56=ALFN00_00_MD|34=158|52=20190709-10:34:12.117|58=Time accuracy problem|10=010|
20190709-09:42:36.492772000 : 8=FIX.4.4|9=81|35=A|34=1|49=ALFN00_00_MD|52=20190709-09:42:36.492|56=NTPROUAT|98=0|108=30|141=Y|10=236|
20190709-09:42:36.497485000 : 8=FIX.4.4|9=0090|35=5|49=NTPROUAT|56=ALFN00_00_MD|34=159|52=20190709-10:35:12.290|58=Time accuracy problem|10=014|
20190709-09:43:36.477610000 : 8=FIX.4.4|9=81|35=A|34=1|49=ALFN00_00_MD|52=20190709-09:43:36.477|56=NTPROUAT|98=0|108=30|141=Y|10=240|
20190709-09:43:36.482206000 : 8=FIX.4.4|9=0090|35=5|49=NTPROUAT|56=ALFN00_00_MD|34=160|52=20190709-10:36:12.274|58=Time accuracy problem|10=009|
20190709-09:44:36.184614000 : 8=FIX.4.4|9=81|35=A|34=1|49=ALFN00_00_MD|52=20190709-09:44:36.184|56=NTPROUAT|98=0|108=30|141=Y|10=236|
20190709-09:44:36.192334000 : 8=FIX.4.4|9=0090|35=5|49=NTPROUAT|56=ALFN00_00_MD|34=161|52=20190709-10:37:11.982|58=Time accuracy problem|10=016|
20190709-09:45:36.506079000 : 8=FIX.4.4|9=81|35=A|34=1|49=ALFN00_00_MD|52=20190709-09:45:36.505|56=NTPROUAT|98=0|108=30|141=Y|10=234|
20190709-09:45:36.510954000 : 8=FIX.4.4|9=0090|35=5|49=NTPROUAT|56=ALFN00_00_MD|34=162|52=20190709-10:38:12.303|58=Time accuracy problem|10=006|
20190709-09:46:36.108360000 : 8=FIX.4.4|9=81|35=A|34=1|49=ALFN00_00_MD|52=20190709-09:46:36.107|56=NTPROUAT|98=0|108=30|141=Y|10=233|
20190709-09:46:36.117459000 : 8=FIX.4.4|9=0090|35=5|49=NTPROUAT|56=ALFN00_00_MD|34=163|52=20190709-10:39:11.906|58=Time accuracy problem|10=016|
20190709-09:47:36.074935000 : 8=FIX.4.4|9=81|35=A|34=1|49=ALFN00_00_MD|52=20190709-09:47:36.074|56=NTPROUAT|98=0|108=30|141=Y|10=237|
20190709-09:47:36.080115000 : 8=FIX.4.4|9=0090|35=5|49=NTPROUAT|56=ALFN00_00_MD|34=164|52=20190709-10:40:11.872|58=Time accuracy problem|10=011|
20190709-09:48:36.327597000 : 8=FIX.4.4|9=81|35=A|34=1|49=ALFN00_00_MD|52=20190709-09:48:36.327|56=NTPROUAT|98=0|108=30|141=Y|10=239|
20190709-09:48:36.337273000 : 8=FIX.4.4|9=0090|35=5|49=NTPROUAT|56=ALFN00_00_MD|34=165|52=20190709-10:41:12.128|58=Time accuracy problem|10=008|
20190709-09:49:36.088733000 : 8=FIX.4.4|9=81|35=A|34=1|49=ALFN00_00_MD|52=20190709-09:49:36.088|56=NTPROUAT|98=0|108=30|141=Y|10=244|
20190709-09:49:36.095605000 : 8=FIX.4.4|9=0090|35=5|49=NTPROUAT|56=ALFN00_00_MD|34=166|52=20190709-10:42:11.887|58=Time accuracy problem|10=021|
20190709-09:50:36.113532000 : 8=FIX.4.4|9=81|35=A|34=1|49=ALFN00_00_MD|52=20190709-09:50:36.113|56=NTPROUAT|98=0|108=30|141=Y|10=225|
20190709-09:50:36.121961000 : 8=FIX.4.4|9=0090|35=5|49=NTPROUAT|56=ALFN00_00_MD|34=167|52=20190709-10:43:11.911|58=Time accuracy problem|10=011|
20190709-09:51:36.357188000 : 8=FIX.4.4|9=81|35=A|34=1|49=ALFN00_00_MD|52=20190709-09:51:36.357|56=NTPROUAT|98=0|108=30|141=Y|10=236|
20190709-09:51:36.360956000 : 8=FIX.4.4|9=0090|35=5|49=NTPROUAT|56=ALFN00_00_MD|34=168|52=20190709-10:44:12.154|58=Time accuracy problem|10=013|
20190709-09:52:36.221060000 : 8=FIX.4.4|9=81|35=A|34=1|49=ALFN00_00_MD|52=20190709-09:52:36.220|56=NTPROUAT|98=0|108=30|141=Y|10=226|
20190709-09:52:36.228896000 : 8=FIX.4.4|9=0090|35=5|49=NTPROUAT|56=ALFN00_00_MD|34=169|52=20190709-10:45:12.019|58=Time accuracy problem|10=015|
20190709-09:53:36.206890000 : 8=FIX.4.4|9=81|35=A|34=1|49=ALFN00_00_MD|52=20190709-09:53:36.206|56=NTPROUAT|98=0|108=30|141=Y|10=231|
20190709-09:53:36.213104000 : 8=FIX.4.4|9=0090|35=5|49=NTPROUAT|56=ALFN00_00_MD|34=170|52=20190709-10:46:12.004|58=Time accuracy problem|10=002|
20190709-09:54:36.290754000 : 8=FIX.4.4|9=81|35=A|34=1|49=ALFN00_00_MD|52=20190709-09:54:36.290|56=NTPROUAT|98=0|108=30|141=Y|10=235|
20190709-09:54:36.295064000 : 8=FIX.4.4|9=0090|35=5|49=NTPROUAT|56=ALFN00_00_MD|34=171|52=20190709-10:47:12.088|58=Time accuracy problem|10=016|
20190709-09:55:36.035635000 : 8=FIX.4.4|9=81|35=A|34=1|49=ALFN00_00_MD|52=20190709-09:55:36.035|56=NTPROUAT|98=0|108=30|141=Y|10=233|
20190709-09:55:36.039618000 : 8=FIX.4.4|9=0090|35=5|49=NTPROUAT|56=ALFN00_00_MD|34=172|52=20190709-10:48:11.833|58=Time accuracy problem|10=015|
20190709-09:56:36.277014000 : 8=FIX.4.4|9=81|35=A|34=1|49=ALFN00_00_MD|52=20190709-09:56:36.276|56=NTPROUAT|98=0|108=30|141=Y|10=241|
20190709-09:56:36.285976000 : 8=FIX.4.4|9=0090|35=5|49=NTPROUAT|56=ALFN00_00_MD|34=173|52=20190709-10:49:12.075|58=Time accuracy problem|10=016|
20190709-09:57:36.444533000 : 8=FIX.4.4|9=81|35=A|34=1|49=ALFN00_00_MD|52=20190709-09:57:36.444|56=NTPROUAT|98=0|108=30|141=Y|10=239|
20190709-09:57:36.448358000 : 8=FIX.4.4|9=0090|35=5|49=NTPROUAT|56=ALFN00_00_MD|34=174|52=20190709-10:50:12.242|58=Time accuracy problem|10=005|
20190709-09:58:36.453421000 : 8=FIX.4.4|9=81|35=A|34=1|49=ALFN00_00_MD|52=20190709-09:58:36.453|56=NTPROUAT|98=0|108=30|141=Y|10=240|
20190709-09:58:36.471696000 : 8=FIX.4.4|9=0090|35=5|49=NTPROUAT|56=ALFN00_00_MD|34=175|52=20190709-10:51:12.251|58=Time accuracy problem|10=007|
20190709-09:59:36.290124000 : 8=FIX.4.4|9=81|35=A|34=1|49=ALFN00_00_MD|52=20190709-09:59:36.289|56=NTPROUAT|98=0|108=30|141=Y|10=248|
20190709-09:59:36.295333000 : 8=FIX.4.4|9=0090|35=5|49=NTPROUAT|56=ALFN00_00_MD|34=176|52=20190709-10:52:12.087|58=Time accuracy problem|10=016|
20190709-10:00:36.391656000 : 8=FIX.4.4|9=81|35=A|34=1|49=ALFN00_00_MD|52=20190709-10:00:36.391|56=NTPROUAT|98=0|108=30|141=Y|10=220|
20190709-10:00:36.399585000 : 8=FIX.4.4|9=0090|35=5|49=NTPROUAT|56=ALFN00_00_MD|34=177|52=20190709-10:53:12.189|58=Time accuracy problem|10=021|
20190709-10:01:36.159431000 : 8=FIX.4.4|9=81|35=A|34=1|49=ALFN00_00_MD|52=20190709-10:01:36.159|56=NTPROUAT|98=0|108=30|141=Y|10=223|
20190709-10:01:36.163115000 : 8=FIX.4.4|9=0090|35=5|49=NTPROUAT|56=ALFN00_00_MD|34=178|52=20190709-10:54:11.957|58=Time accuracy problem|10=025|
20190709-10:02:36.249717000 : 8=FIX.4.4|9=81|35=A|34=1|49=ALFN00_00_MD|52=20190709-10:02:36.249|56=NTPROUAT|98=0|108=30|141=Y|10=224|
20190709-10:02:36.255999000 : 8=FIX.4.4|9=0090|35=5|49=NTPROUAT|56=ALFN00_00_MD|34=179|52=20190709-10:55:12.047|58=Time accuracy problem|10=018|
20190709-10:03:36.382789000 : 8=FIX.4.4|9=81|35=A|34=1|49=ALFN00_00_MD|52=20190709-10:03:36.382|56=NTPROUAT|98=0|108=30|141=Y|10=223|
20190709-10:03:36.392784000 : 8=FIX.4.4|9=0090|35=5|49=NTPROUAT|56=ALFN00_00_MD|34=180|52=20190709-10:56:12.180|58=Time accuracy problem|10=009|
20190709-10:04:36.413681000 : 8=FIX.4.4|9=81|35=A|34=1|49=ALFN00_00_MD|52=20190709-10:04:36.413|56=NTPROUAT|98=0|108=30|141=Y|10=219|
20190709-10:04:36.430377000 : 8=FIX.4.4|9=0090|35=5|49=NTPROUAT|56=ALFN00_00_MD|34=181|52=20190709-10:57:12.212|58=Time accuracy problem|10=007|
20190709-10:05:36.272865000 : 8=FIX.4.4|9=81|35=A|34=1|49=ALFN00_00_MD|52=20190709-10:05:36.272|56=NTPROUAT|98=0|108=30|141=Y|10=223|
20190709-10:05:36.283235000 : 8=FIX.4.4|9=0090|35=5|49=NTPROUAT|56=ALFN00_00_MD|34=182|52=20190709-10:58:12.070|58=Time accuracy problem|10=011|
20190709-10:06:36.094597000 : 8=FIX.4.4|9=81|35=A|34=1|49=ALFN00_00_MD|52=20190709-10:06:36.094|56=NTPROUAT|98=0|108=30|141=Y|10=226|
20190709-10:06:36.105232000 : 8=FIX.4.4|9=0090|35=5|49=NTPROUAT|56=ALFN00_00_MD|34=183|52=20190709-10:59:11.892|58=Time accuracy problem|10=024|
20190709-10:07:36.261651000 : 8=FIX.4.4|9=81|35=A|34=1|49=ALFN00_00_MD|52=20190709-10:07:36.261|56=NTPROUAT|98=0|108=30|141=Y|10=223|
20190709-10:07:36.269551000 : 8=FIX.4.4|9=0090|35=5|49=NTPROUAT|56=ALFN00_00_MD|34=184|52=20190709-11:00:12.059|58=Time accuracy problem|10=008|
20190709-10:08:36.252972000 : 8=FIX.4.4|9=81|35=A|34=1|49=ALFN00_00_MD|52=20190709-10:08:36.252|56=NTPROUAT|98=0|108=30|141=Y|10=224|
20190709-10:08:36.258374000 : 8=FIX.4.4|9=0090|35=5|49=NTPROUAT|56=ALFN00_00_MD|34=185|52=20190709-11:01:12.051|58=Time accuracy problem|10=002|
20190709-10:09:36.251159000 : 8=FIX.4.4|9=81|35=A|34=1|49=ALFN00_00_MD|52=20190709-10:09:36.250|56=NTPROUAT|98=0|108=30|141=Y|10=223|
20190709-10:09:36.256745000 : 8=FIX.4.4|9=0090|35=5|49=NTPROUAT|56=ALFN00_00_MD|34=186|52=20190709-11:02:12.049|58=Time accuracy problem|10=011|
20190709-10:10:36.226431000 : 8=FIX.4.4|9=81|35=A|34=1|49=ALFN00_00_MD|52=20190709-10:10:36.226|56=NTPROUAT|98=0|108=30|141=Y|10=218|
20190709-10:10:36.235537000 : 8=FIX.4.4|9=0090|35=5|49=NTPROUAT|56=ALFN00_00_MD|34=187|52=20190709-11:03:12.024|58=Time accuracy problem|10=006|
20190709-10:11:36.256684000 : 8=FIX.4.4|9=81|35=A|34=1|49=ALFN00_00_MD|52=20190709-10:11:36.256|56=NTPROUAT|98=0|108=30|141=Y|10=222|
20190709-10:11:36.260700000 : 8=FIX.4.4|9=0090|35=5|49=NTPROUAT|56=ALFN00_00_MD|34=188|52=20190709-11:04:12.054|58=Time accuracy problem|10=011|
20190709-10:12:36.027968000 : 8=FIX.4.4|9=81|35=A|34=1|49=ALFN00_00_MD|52=20190709-10:12:36.027|56=NTPROUAT|98=0|108=30|141=Y|10=219|
20190709-10:12:36.033159000 : 8=FIX.4.4|9=0090|35=5|49=NTPROUAT|56=ALFN00_00_MD|34=189|52=20190709-11:05:11.826|58=Time accuracy problem|10=019|
20190709-10:13:36.182833000 : 8=FIX.4.4|9=81|35=A|34=1|49=ALFN00_00_MD|52=20190709-10:13:36.182|56=NTPROUAT|98=0|108=30|141=Y|10=222|
20190709-10:13:36.187898000 : 8=FIX.4.4|9=0090|35=5|49=NTPROUAT|56=ALFN00_00_MD|34=190|52=20190709-11:06:11.981|58=Time accuracy problem|10=014|
20190709-10:14:36.129996000 : 8=FIX.4.4|9=81|35=A|34=1|49=ALFN00_00_MD|52=20190709-10:14:36.129|56=NTPROUAT|98=0|108=30|141=Y|10=224|
20190709-10:14:36.134573000 : 8=FIX.4.4|9=0090|35=5|49=NTPROUAT|56=ALFN00_00_MD|34=191|52=20190709-11:07:11.928|58=Time accuracy problem|10=017|
20190709-10:15:36.135613000 : 8=FIX.4.4|9=81|35=A|34=1|49=ALFN00_00_MD|52=20190709-10:15:36.135|56=NTPROUAT|98=0|108=30|141=Y|10=222|
20190709-10:15:36.141071000 : 8=FIX.4.4|9=0090|35=5|49=NTPROUAT|56=ALFN00_00_MD|34=192|52=20190709-11:08:11.933|58=Time accuracy problem|10=015|
20190709-10:16:36.142125000 : 8=FIX.4.4|9=81|35=A|34=1|49=ALFN00_00_MD|52=20190709-10:16:36.141|56=NTPROUAT|98=0|108=30|141=Y|10=220|
20190709-10:16:36.146740000 : 8=FIX.4.4|9=0090|35=5|49=NTPROUAT|56=ALFN00_00_MD|34=193|52=20190709-11:09:11.940|58=Time accuracy problem|10=015|
20190709-10:17:36.048153000 : 8=FIX.4.4|9=81|35=A|34=1|49=ALFN00_00_MD|52=20190709-10:17:36.047|56=NTPROUAT|98=0|108=30|141=Y|10=226|
20190709-10:17:36.053397000 : 8=FIX.4.4|9=0090|35=5|49=NTPROUAT|56=ALFN00_00_MD|34=194|52=20190709-11:10:11.847|58=Time accuracy problem|10=014|
20190709-10:18:36.079553000 : 8=FIX.4.4|9=81|35=A|34=1|49=ALFN00_00_MD|52=20190709-10:18:36.079|56=NTPROUAT|98=0|108=30|141=Y|10=232|
20190709-10:18:36.084025000 : 8=FIX.4.4|9=0090|35=5|49=NTPROUAT|56=ALFN00_00_MD|34=195|52=20190709-11:11:11.878|58=Time accuracy problem|10=020|
20190709-10:19:36.203570000 : 8=FIX.4.4|9=81|35=A|34=1|49=ALFN00_00_MD|52=20190709-10:19:36.203|56=NTPROUAT|98=0|108=30|141=Y|10=222|
20190709-10:19:36.212205000 : 8=FIX.4.4|9=0090|35=5|49=NTPROUAT|56=ALFN00_00_MD|34=196|52=20190709-11:12:12.005|58=Time accuracy problem|10=005|
20190709-10:20:36.205226000 : 8=FIX.4.4|9=81|35=A|34=1|49=ALFN00_00_MD|52=20190709-10:20:36.204|56=NTPROUAT|98=0|108=30|141=Y|10=215|
20190709-10:20:36.209707000 : 8=FIX.4.4|9=0090|35=5|49=NTPROUAT|56=ALFN00_00_MD|34=197|52=20190709-11:13:12.004|58=Time accuracy problem|10=006|
20190709-10:21:36.142194000 : 8=FIX.4.4|9=81|35=A|34=1|49=ALFN00_00_MD|52=20190709-10:21:36.142|56=NTPROUAT|98=0|108=30|141=Y|10=217|
20190709-10:21:36.148954000 : 8=FIX.4.4|9=0090|35=5|49=NTPROUAT|56=ALFN00_00_MD|34=198|52=20190709-11:14:11.942|58=Time accuracy problem|10=018|
20190709-10:22:36.142929000 : 8=FIX.4.4|9=81|35=A|34=1|49=ALFN00_00_MD|52=20190709-10:22:36.142|56=NTPROUAT|98=0|108=30|141=Y|10=218|
20190709-10:22:36.150063000 : 8=FIX.4.4|9=0090|35=5|49=NTPROUAT|56=ALFN00_00_MD|34=199|52=20190709-11:15:11.943|58=Time accuracy problem|10=021|
20190709-10:23:36.015526000 : 8=FIX.4.4|9=81|35=A|34=1|49=ALFN00_00_MD|52=20190709-10:23:36.015|56=NTPROUAT|98=0|108=30|141=Y|10=218|
20190709-10:23:36.020124000 : 8=FIX.4.4|9=0090|35=5|49=NTPROUAT|56=ALFN00_00_MD|34=200|52=20190709-11:16:11.814|58=Time accuracy problem|10=002|
20190709-10:24:36.020247000 : 8=FIX.4.4|9=81|35=A|34=1|49=ALFN00_00_MD|52=20190709-10:24:36.019|56=NTPROUAT|98=0|108=30|141=Y|10=223|
20190709-10:24:36.025173000 : 8=FIX.4.4|9=0090|35=5|49=NTPROUAT|56=ALFN00_00_MD|34=201|52=20190709-11:17:11.819|58=Time accuracy problem|10=009|
20190709-10:25:36.837074000 : 8=FIX.4.4|9=81|35=A|34=1|49=ALFN00_00_MD|52=20190709-10:25:36.836|56=NTPROUAT|98=0|108=30|141=Y|10=231|
20190709-10:25:36.841257000 : 8=FIX.4.4|9=0090|35=5|49=NTPROUAT|56=ALFN00_00_MD|34=202|52=20190709-11:18:12.636|58=Time accuracy problem|10=009|
20190709-10:26:36.460509000 : 8=FIX.4.4|9=81|35=A|34=1|49=ALFN00_00_MD|52=20190709-10:26:36.460|56=NTPROUAT|98=0|108=30|141=Y|10=225|
20190709-10:26:36.464560000 : 8=FIX.4.4|9=0090|35=5|49=NTPROUAT|56=ALFN00_00_MD|34=203|52=20190709-11:19:12.259|58=Time accuracy problem|10=012|
20190709-10:27:36.743542000 : 8=FIX.4.4|9=81|35=A|34=1|49=ALFN00_00_MD|52=20190709-10:27:36.743|56=NTPROUAT|98=0|108=30|141=Y|10=230|
20190709-10:27:36.751998000 : 8=FIX.4.4|9=0090|35=5|49=NTPROUAT|56=ALFN00_00_MD|34=204|52=20190709-11:20:12.542|58=Time accuracy problem|10=000|
20190709-10:28:36.704656000 : 8=FIX.4.4|9=81|35=A|34=1|49=ALFN00_00_MD|52=20190709-10:28:36.704|56=NTPROUAT|98=0|108=30|141=Y|10=228|
20190709-10:28:36.708762000 : 8=FIX.4.4|9=0090|35=5|49=NTPROUAT|56=ALFN00_00_MD|34=205|52=20190709-11:21:12.503|58=Time accuracy problem|10=255|
20190709-10:29:36.325931000 : 8=FIX.4.4|9=81|35=A|34=1|49=ALFN00_00_MD|52=20190709-10:29:36.325|56=NTPROUAT|98=0|108=30|141=Y|10=228|
20190709-10:29:36.336558000 : 8=FIX.4.4|9=0090|35=5|49=NTPROUAT|56=ALFN00_00_MD|34=206|52=20190709-11:22:12.124|58=Time accuracy problem|10=000|
20190709-10:30:36.488916000 : 8=FIX.4.4|9=81|35=A|34=1|49=ALFN00_00_MD|52=20190709-10:30:36.487|56=NTPROUAT|98=0|108=30|141=Y|10=229|
20190709-10:30:36.494089000 : 8=FIX.4.4|9=0090|35=5|49=NTPROUAT|56=ALFN00_00_MD|34=207|52=20190709-11:23:12.288|58=Time accuracy problem|10=013|
20190709-10:31:36.755797000 : 8=FIX.4.4|9=81|35=A|34=1|49=ALFN00_00_MD|52=20190709-10:31:36.755|56=NTPROUAT|98=0|108=30|141=Y|10=228|
20190709-10:31:36.760715000 : 8=FIX.4.4|9=0090|35=5|49=NTPROUAT|56=ALFN00_00_MD|34=208|52=20190709-11:24:12.554|58=Time accuracy problem|10=011|
20190709-10:32:36.652047000 : 8=FIX.4.4|9=81|35=A|34=1|49=ALFN00_00_MD|52=20190709-10:32:36.651|56=NTPROUAT|98=0|108=30|141=Y|10=224|
20190709-10:32:36.659106000 : 8=FIX.4.4|9=0090|35=5|49=NTPROUAT|56=ALFN00_00_MD|34=209|52=20190709-11:25:12.451|58=Time accuracy problem|10=009|
20190709-10:33:36.225440000 : 8=FIX.4.4|9=81|35=A|34=1|49=ALFN00_00_MD|52=20190709-10:33:36.225|56=NTPROUAT|98=0|108=30|141=Y|10=222|
20190709-10:33:36.229170000 : 8=FIX.4.4|9=0090|35=5|49=NTPROUAT|56=ALFN00_00_MD|34=210|52=20190709-11:26:12.024|58=Time accuracy problem|10=254|
20190709-10:34:36.390681000 : 8=FIX.4.4|9=81|35=A|34=1|49=ALFN00_00_MD|52=20190709-10:34:36.389|56=NTPROUAT|98=0|108=30|141=Y|10=234|
20190709-10:34:36.401258000 : 8=FIX.4.4|9=0090|35=5|49=NTPROUAT|56=ALFN00_00_MD|34=211|52=20190709-11:27:12.193|58=Time accuracy problem|10=007|
20190709-10:35:36.855168000 : 8=FIX.4.4|9=81|35=A|34=1|49=ALFN00_00_MD|52=20190709-10:35:36.854|56=NTPROUAT|98=0|108=30|141=Y|10=232|
20190709-10:35:36.860395000 : 8=FIX.4.4|9=0090|35=5|49=NTPROUAT|56=ALFN00_00_MD|34=212|52=20190709-11:28:12.654|58=Time accuracy problem|10=011|
20190709-10:36:36.888101000 : 8=FIX.4.4|9=81|35=A|34=1|49=ALFN00_00_MD|52=20190709-10:36:36.887|56=NTPROUAT|98=0|108=30|141=Y|10=239|
20190709-10:36:36.893640000 : 8=FIX.4.4|9=0090|35=5|49=NTPROUAT|56=ALFN00_00_MD|34=213|52=20190709-11:29:12.687|58=Time accuracy problem|10=019|
20190709-10:37:36.743075000 : 8=FIX.4.4|9=81|35=A|34=1|49=ALFN00_00_MD|52=20190709-10:37:36.742|56=NTPROUAT|98=0|108=30|141=Y|10=230|
20190709-10:37:36.747361000 : 8=FIX.4.4|9=0090|35=5|49=NTPROUAT|56=ALFN00_00_MD|34=214|52=20190709-11:30:12.542|58=Time accuracy problem|10=002|
20190709-10:38:36.190865000 : 8=FIX.4.4|9=81|35=A|34=1|49=ALFN00_00_MD|52=20190709-10:38:36.190|56=NTPROUAT|98=0|108=30|141=Y|10=228|
20190709-10:38:36.194709000 : 8=FIX.4.4|9=0090|35=5|49=NTPROUAT|56=ALFN00_00_MD|34=215|52=20190709-11:31:11.989|58=Time accuracy problem|10=018|
20190709-10:39:36.095145000 : 8=FIX.4.4|9=81|35=A|34=1|49=ALFN00_00_MD|52=20190709-10:39:36.094|56=NTPROUAT|98=0|108=30|141=Y|10=232|
20190709-10:39:36.100314000 : 8=FIX.4.4|9=0090|35=5|49=NTPROUAT|56=ALFN00_00_MD|34=216|52=20190709-11:32:11.894|58=Time accuracy problem|10=015|
20190709-10:40:36.249007000 : 8=FIX.4.4|9=81|35=A|34=1|49=ALFN00_00_MD|52=20190709-10:40:36.248|56=NTPROUAT|98=0|108=30|141=Y|10=225|
20190709-10:40:36.253293000 : 8=FIX.4.4|9=0090|35=5|49=NTPROUAT|56=ALFN00_00_MD|34=217|52=20190709-11:33:12.048|58=Time accuracy problem|10=009|
20190709-10:41:36.657009000 : 8=FIX.4.4|9=81|35=A|34=1|49=ALFN00_00_MD|52=20190709-10:41:36.656|56=NTPROUAT|98=0|108=30|141=Y|10=229|
20190709-10:41:36.662318000 : 8=FIX.4.4|9=0090|35=5|49=NTPROUAT|56=ALFN00_00_MD|34=218|52=20190709-11:34:12.456|58=Time accuracy problem|10=014|
20190709-10:42:36.319796000 : 8=FIX.4.4|9=81|35=A|34=1|49=ALFN00_00_MD|52=20190709-10:42:36.319|56=NTPROUAT|98=0|108=30|141=Y|10=226|
20190709-10:42:36.324615000 : 8=FIX.4.4|9=0090|35=5|49=NTPROUAT|56=ALFN00_00_MD|34=219|52=20190709-11:35:12.119|58=Time accuracy problem|10=012|
20190709-10:43:36.033425000 : 8=FIX.4.4|9=81|35=A|34=1|49=ALFN00_00_MD|52=20190709-10:43:36.030|56=NTPROUAT|98=0|108=30|141=Y|10=217|
20190709-10:43:36.039655000 : 8=FIX.4.4|9=0090|35=5|49=NTPROUAT|56=ALFN00_00_MD|34=220|52=20190709-11:36:11.832|58=Time accuracy problem|10=006|
20190709-10:44:36.832504000 : 8=FIX.4.4|9=81|35=A|34=1|49=ALFN00_00_MD|52=20190709-10:44:36.832|56=NTPROUAT|98=0|108=30|141=Y|10=228|
20190709-10:44:36.845178000 : 8=FIX.4.4|9=0090|35=5|49=NTPROUAT|56=ALFN00_00_MD|34=221|52=20190709-11:37:12.639|58=Time accuracy problem|10=014|
20190709-10:45:36.087061000 : 8=FIX.4.4|9=81|35=A|34=1|49=ALFN00_00_MD|52=20190709-10:45:36.067|56=NTPROUAT|98=0|108=30|141=Y|10=229|
20190709-10:45:36.091963000 : 8=FIX.4.4|9=0090|35=5|49=NTPROUAT|56=ALFN00_00_MD|34=222|52=20190709-11:38:11.886|58=Time accuracy problem|10=019|
20190709-10:46:36.637918000 : 8=FIX.4.4|9=81|35=A|34=1|49=ALFN00_00_MD|52=20190709-10:46:36.637|56=NTPROUAT|98=0|108=30|141=Y|10=233|
20190709-10:46:36.646721000 : 8=FIX.4.4|9=0090|35=5|49=NTPROUAT|56=ALFN00_00_MD|34=223|52=20190709-11:39:12.437|58=Time accuracy problem|10=014|
20190709-10:47:36.290700000 : 8=FIX.4.4|9=81|35=A|34=1|49=ALFN00_00_MD|52=20190709-10:47:36.290|56=NTPROUAT|98=0|108=30|141=Y|10=229|
20190709-10:47:36.294729000 : 8=FIX.4.4|9=0090|35=5|49=NTPROUAT|56=ALFN00_00_MD|34=224|52=20190709-11:40:12.089|58=Time accuracy problem|10=010|
20190709-10:48:36.561954000 : 8=FIX.4.4|9=81|35=A|34=1|49=ALFN00_00_MD|52=20190709-10:48:36.561|56=NTPROUAT|98=0|108=30|141=Y|10=231|
20190709-10:48:36.566882000 : 8=FIX.4.4|9=0090|35=5|49=NTPROUAT|56=ALFN00_00_MD|34=225|52=20190709-11:41:12.361|58=Time accuracy problem|10=005|
20190709-10:49:36.644129000 : 8=FIX.4.4|9=81|35=A|34=1|49=ALFN00_00_MD|52=20190709-10:49:36.643|56=NTPROUAT|98=0|108=30|141=Y|10=233|
20190709-10:49:36.656318000 : 8=FIX.4.4|9=0090|35=5|49=NTPROUAT|56=ALFN00_00_MD|34=226|52=20190709-11:42:12.444|58=Time accuracy problem|10=009|
20190709-10:50:36.109206000 : 8=FIX.4.4|9=81|35=A|34=1|49=ALFN00_00_MD|52=20190709-10:50:36.108|56=NTPROUAT|98=0|108=30|141=Y|10=221|
20190709-10:50:36.113467000 : 8=FIX.4.4|9=0090|35=5|49=NTPROUAT|56=ALFN00_00_MD|34=227|52=20190709-11:43:11.907|58=Time accuracy problem|10=014|
20190709-10:51:36.169254000 : 8=FIX.4.4|9=81|35=A|34=1|49=ALFN00_00_MD|52=20190709-10:51:36.168|56=NTPROUAT|98=0|108=30|141=Y|10=228|
20190709-10:51:36.194274000 : 8=FIX.4.4|9=0090|35=5|49=NTPROUAT|56=ALFN00_00_MD|34=228|52=20190709-11:44:11.968|58=Time accuracy problem|10=023|
20190709-10:52:36.661072000 : 8=FIX.4.4|9=81|35=A|34=1|49=ALFN00_00_MD|52=20190709-10:52:36.660|56=NTPROUAT|98=0|108=30|141=Y|10=226|
20190709-10:52:36.667794000 : 8=FIX.4.4|9=0090|35=5|49=NTPROUAT|56=ALFN00_00_MD|34=229|52=20190709-11:45:12.460|58=Time accuracy problem|10=013|
20190709-10:53:36.143860000 : 8=FIX.4.4|9=81|35=A|34=1|49=ALFN00_00_MD|52=20190709-10:53:36.143|56=NTPROUAT|98=0|108=30|141=Y|10=223|
20190709-10:53:36.149734000 : 8=FIX.4.4|9=0090|35=5|49=NTPROUAT|56=ALFN00_00_MD|34=230|52=20190709-11:46:11.942|58=Time accuracy problem|10=010|
20190709-10:54:36.019857000 : 8=FIX.4.4|9=81|35=A|34=1|49=ALFN00_00_MD|52=20190709-10:54:36.019|56=NTPROUAT|98=0|108=30|141=Y|10=226|
20190709-10:54:36.023968000 : 8=FIX.4.4|9=0090|35=5|49=NTPROUAT|56=ALFN00_00_MD|34=231|52=20190709-11:47:11.818|58=Time accuracy problem|10=014|
20190709-10:55:36.400928000 : 8=FIX.4.4|9=81|35=A|34=1|49=ALFN00_00_MD|52=20190709-10:55:36.400|56=NTPROUAT|98=0|108=30|141=Y|10=221|
20190709-10:55:36.423371000 : 8=FIX.4.4|9=0090|35=5|49=NTPROUAT|56=ALFN00_00_MD|34=232|52=20190709-11:48:12.200|58=Time accuracy problem|10=002|
20190709-10:56:36.554976000 : 8=FIX.4.4|9=81|35=A|34=1|49=ALFN00_00_MD|52=20190709-10:56:36.554|56=NTPROUAT|98=0|108=30|141=Y|10=232|
20190709-10:56:36.563510000 : 8=FIX.4.4|9=0090|35=5|49=NTPROUAT|56=ALFN00_00_MD|34=233|52=20190709-11:49:12.353|58=Time accuracy problem|10=013|
20190709-10:57:36.063861000 : 8=FIX.4.4|9=81|35=A|34=1|49=ALFN00_00_MD|52=20190709-10:57:36.063|56=NTPROUAT|98=0|108=30|141=Y|10=228|
20190709-10:57:36.069334000 : 8=FIX.4.4|9=0090|35=5|49=NTPROUAT|56=ALFN00_00_MD|34=234|52=20190709-11:50:11.862|58=Time accuracy problem|10=010|
20190709-10:58:36.358439000 : 8=FIX.4.4|9=81|35=A|34=1|49=ALFN00_00_MD|52=20190709-10:58:36.357|56=NTPROUAT|98=0|108=30|141=Y|10=235|
20190709-10:58:36.362924000 : 8=FIX.4.4|9=0090|35=5|49=NTPROUAT|56=ALFN00_00_MD|34=235|52=20190709-11:51:12.157|58=Time accuracy problem|10=010|
20190709-10:59:36.378337000 : 8=FIX.4.4|9=81|35=A|34=1|49=ALFN00_00_MD|52=20190709-10:59:36.377|56=NTPROUAT|98=0|108=30|141=Y|10=238|
20190709-10:59:36.384418000 : 8=FIX.4.4|9=0090|35=5|49=NTPROUAT|56=ALFN00_00_MD|34=236|52=20190709-11:52:12.177|58=Time accuracy problem|10=014|
20190709-11:00:36.473128000 : 8=FIX.4.4|9=81|35=A|34=1|49=ALFN00_00_MD|52=20190709-11:00:36.472|56=NTPROUAT|98=0|108=30|141=Y|10=221|
20190709-11:01:36.227766000 : 8=FIX.4.4|9=81|35=A|34=1|49=ALFN00_00_MD|52=20190709-11:01:36.227|56=NTPROUAT|98=0|108=30|141=Y|10=220|
20190709-11:01:36.236755000 : 8=FIX.4.4|9=0090|35=5|49=NTPROUAT|56=ALFN00_00_MD|34=237|52=20190709-12:10:28.801|58=Time accuracy problem|10=011|
20190709-11:02:36.538966000 : 8=FIX.4.4|9=81|35=A|34=1|49=ALFN00_00_MD|52=20190709-11:02:36.538|56=NTPROUAT|98=0|108=30|141=Y|10=226|
20190709-11:03:36.009708000 : 8=FIX.4.4|9=81|35=A|34=1|49=ALFN00_00_MD|52=20190709-11:03:36.009|56=NTPROUAT|98=0|108=30|141=Y|10=220|
20190709-11:04:36.160981000 : 8=FIX.4.4|9=81|35=A|34=1|49=ALFN00_00_MD|52=20190709-11:04:36.160|56=NTPROUAT|98=0|108=30|141=Y|10=219|
20190709-11:05:36.503687000 : 8=FIX.4.4|9=81|35=A|34=1|49=ALFN00_00_MD|52=20190709-11:05:36.503|56=NTPROUAT|98=0|108=30|141=Y|10=221|
20190709-11:06:36.441775000 : 8=FIX.4.4|9=81|35=A|34=1|49=ALFN00_00_MD|52=20190709-11:06:36.441|56=NTPROUAT|98=0|108=30|141=Y|10=223|
20190709-11:07:36.472157000 : 8=FIX.4.4|9=81|35=A|34=1|49=ALFN00_00_MD|52=20190709-11:07:36.471|56=NTPROUAT|98=0|108=30|141=Y|10=227|
20190709-11:08:36.055420000 : 8=FIX.4.4|9=81|35=A|34=1|49=ALFN00_00_MD|52=20190709-11:08:36.055|56=NTPROUAT|98=0|108=30|141=Y|10=226|
20190709-11:09:36.072008000 : 8=FIX.4.4|9=81|35=A|34=1|49=ALFN00_00_MD|52=20190709-11:09:36.071|56=NTPROUAT|98=0|108=30|141=Y|10=225|
20190709-11:10:36.050438000 : 8=FIX.4.4|9=81|35=A|34=1|49=ALFN00_00_MD|52=20190709-11:10:36.050|56=NTPROUAT|98=0|108=30|141=Y|10=214|
20190709-11:11:36.417482000 : 8=FIX.4.4|9=81|35=A|34=1|49=ALFN00_00_MD|52=20190709-11:11:36.417|56=NTPROUAT|98=0|108=30|141=Y|10=222|
20190709-11:12:36.185682000 : 8=FIX.4.4|9=81|35=A|34=1|49=ALFN00_00_MD|52=20190709-11:12:36.185|56=NTPROUAT|98=0|108=30|141=Y|10=225|
20190709-11:15:46.689400000 : 8=FIX.4.4|9=81|35=A|34=1|49=ALFN00_00_MD|52=20190709-11:15:46.689|56=NTPROUAT|98=0|108=30|141=Y|10=238|
20190709-11:18:46.912973000 : 8=FIX.4.4|9=81|35=A|34=1|49=ALFN00_00_MD|52=20190709-11:18:46.912|56=NTPROUAT|98=0|108=30|141=Y|10=230|
20190709-11:21:47.136972000 : 8=FIX.4.4|9=81|35=A|34=1|49=ALFN00_00_MD|52=20190709-11:21:47.136|56=NTPROUAT|98=0|108=30|141=Y|10=223|
20190709-11:24:45.313576000 : 8=FIX.4.4|9=81|35=A|34=1|49=ALFN00_00_MD|52=20190709-11:24:45.313|56=NTPROUAT|98=0|108=30|141=Y|10=221|
20190709-11:27:45.536961000 : 8=FIX.4.4|9=81|35=A|34=1|49=ALFN00_00_MD|52=20190709-11:27:45.536|56=NTPROUAT|98=0|108=30|141=Y|10=231|
20190709-11:30:45.761054000 : 8=FIX.4.4|9=81|35=A|34=1|49=ALFN00_00_MD|52=20190709-11:30:45.760|56=NTPROUAT|98=0|108=30|141=Y|10=224|
20190709-11:33:45.985771000 : 8=FIX.4.4|9=81|35=A|34=1|49=ALFN00_00_MD|52=20190709-11:33:45.985|56=NTPROUAT|98=0|108=30|141=Y|10=236|
20190709-11:36:46.208971000 : 8=FIX.4.4|9=81|35=A|34=1|49=ALFN00_00_MD|52=20190709-11:36:46.208|56=NTPROUAT|98=0|108=30|141=Y|10=228|
20190709-11:39:46.433333000 : 8=FIX.4.4|9=81|35=A|34=1|49=ALFN00_00_MD|52=20190709-11:39:46.432|56=NTPROUAT|98=0|108=30|141=Y|10=230|
20190709-11:42:46.657146000 : 8=FIX.4.4|9=81|35=A|34=1|49=ALFN00_00_MD|52=20190709-11:42:46.656|56=NTPROUAT|98=0|108=30|141=Y|10=232|
20190709-11:45:46.880980000 : 8=FIX.4.4|9=81|35=A|34=1|49=ALFN00_00_MD|52=20190709-11:45:46.880|56=NTPROUAT|98=0|108=30|141=Y|10=234|
20190709-11:48:47.106001000 : 8=FIX.4.4|9=81|35=A|34=1|49=ALFN00_00_MD|52=20190709-11:48:47.105|56=NTPROUAT|98=0|108=30|141=Y|10=228|
20190709-11:51:47.329944000 : 8=FIX.4.4|9=81|35=A|34=1|49=ALFN00_00_MD|52=20190709-11:51:47.329|56=NTPROUAT|98=0|108=30|141=Y|10=230|
20190709-11:54:47.554345000 : 8=FIX.4.4|9=81|35=A|34=1|49=ALFN00_00_MD|52=20190709-11:54:47.553|56=NTPROUAT|98=0|108=30|141=Y|10=232|
20190709-11:57:47.777407000 : 8=FIX.4.4|9=81|35=A|34=1|49=ALFN00_00_MD|52=20190709-11:57:47.777|56=NTPROUAT|98=0|108=30|141=Y|10=243|
20190709-12:00:45.952942000 : 8=FIX.4.4|9=81|35=A|34=1|49=ALFN00_00_MD|52=20190709-12:00:45.952|56=NTPROUAT|98=0|108=30|141=Y|10=225|
20190709-12:03:46.177298000 : 8=FIX.4.4|9=81|35=A|34=1|49=ALFN00_00_MD|52=20190709-12:03:46.176|56=NTPROUAT|98=0|108=30|141=Y|10=227|
20190709-12:06:46.401236000 : 8=FIX.4.4|9=81|35=A|34=1|49=ALFN00_00_MD|52=20190709-12:06:46.401|56=NTPROUAT|98=0|108=30|141=Y|10=221|
20190709-12:07:36.135407000 : 8=FIX.4.4|9=81|35=A|34=1|49=ALFN00_00_MD|52=20190709-12:07:36.134|56=NTPROUAT|98=0|108=30|141=Y|10=224|
20190709-12:08:36.126706000 : 8=FIX.4.4|9=81|35=A|34=1|49=ALFN00_00_MD|52=20190709-12:08:36.126|56=NTPROUAT|98=0|108=30|141=Y|10=226|
20190709-12:09:36.403956000 : 8=FIX.4.4|9=81|35=A|34=1|49=ALFN00_00_MD|52=20190709-12:09:36.403|56=NTPROUAT|98=0|108=30|141=Y|10=225|
20190709-12:10:36.122756000 : 8=FIX.4.4|9=81|35=A|34=1|49=ALFN00_00_MD|52=20190709-12:10:36.122|56=NTPROUAT|98=0|108=30|141=Y|10=215|
20190709-12:11:36.119923000 : 8=FIX.4.4|9=81|35=A|34=1|49=ALFN00_00_MD|52=20190709-12:11:36.119|56=NTPROUAT|98=0|108=30|141=Y|10=222|
20190709-12:12:36.296513000 : 8=FIX.4.4|9=81|35=A|34=1|49=ALFN00_00_MD|52=20190709-12:12:36.296|56=NTPROUAT|98=0|108=30|141=Y|10=229|
20190709-12:13:36.679288000 : 8=FIX.4.4|9=81|35=A|34=1|49=ALFN00_00_MD|52=20190709-12:13:36.679|56=NTPROUAT|98=0|108=30|141=Y|10=235|
20190709-12:14:36.559280000 : 8=FIX.4.4|9=81|35=A|34=1|49=ALFN00_00_MD|52=20190709-12:14:36.559|56=NTPROUAT|98=0|108=30|141=Y|10=233|
20190709-12:15:36.680391000 : 8=FIX.4.4|9=81|35=A|34=1|49=ALFN00_00_MD|52=20190709-12:15:36.680|56=NTPROUAT|98=0|108=30|141=Y|10=229|
20190709-12:16:36.246233000 : 8=FIX.4.4|9=81|35=A|34=1|49=ALFN00_00_MD|52=20190709-12:16:36.245|56=NTPROUAT|98=0|108=30|141=Y|10=227|
20190709-12:17:36.617346000 : 8=FIX.4.4|9=81|35=A|34=1|49=ALFN00_00_MD|52=20190709-12:17:36.617|56=NTPROUAT|98=0|108=30|141=Y|10=231|
20190709-12:18:36.616868000 : 8=FIX.4.4|9=81|35=A|34=1|49=ALFN00_00_MD|52=20190709-12:18:36.616|56=NTPROUAT|98=0|108=30|141=Y|10=231|
20190709-12:19:36.238580000 : 8=FIX.4.4|9=81|35=A|34=1|49=ALFN00_00_MD|52=20190709-12:19:36.238|56=NTPROUAT|98=0|108=30|141=Y|10=232|
20190709-12:20:36.225916000 : 8=FIX.4.4|9=81|35=A|34=1|49=ALFN00_00_MD|52=20190709-12:20:36.225|56=NTPROUAT|98=0|108=30|141=Y|10=220|
20190709-12:21:36.476980000 : 8=FIX.4.4|9=81|35=A|34=1|49=ALFN00_00_MD|52=20190709-12:21:36.476|56=NTPROUAT|98=0|108=30|141=Y|10=229|
20190709-12:22:36.181280000 : 8=FIX.4.4|9=81|35=A|34=1|49=ALFN00_00_MD|52=20190709-12:22:36.181|56=NTPROUAT|98=0|108=30|141=Y|10=223|
20190709-12:23:36.104007000 : 8=FIX.4.4|9=81|35=A|34=1|49=ALFN00_00_MD|52=20190709-12:23:36.103|56=NTPROUAT|98=0|108=30|141=Y|10=218|
20190709-12:24:36.156900000 : 8=FIX.4.4|9=81|35=A|34=1|49=ALFN00_00_MD|52=20190709-12:24:36.156|56=NTPROUAT|98=0|108=30|141=Y|10=227|
20190709-12:25:36.297072000 : 8=FIX.4.4|9=81|35=A|34=1|49=ALFN00_00_MD|52=20190709-12:25:36.296|56=NTPROUAT|98=0|108=30|141=Y|10=233|
20190709-12:26:36.588491000 : 8=FIX.4.4|9=81|35=A|34=1|49=ALFN00_00_MD|52=20190709-12:26:36.588|56=NTPROUAT|98=0|108=30|141=Y|10=238|
20190709-12:27:36.294400000 : 8=FIX.4.4|9=81|35=A|34=1|49=ALFN00_00_MD|52=20190709-12:27:36.293|56=NTPROUAT|98=0|108=30|141=Y|10=232|
20190709-12:28:36.020844000 : 8=FIX.4.4|9=81|35=A|34=1|49=ALFN00_00_MD|52=20190709-12:28:36.020|56=NTPROUAT|98=0|108=30|141=Y|10=221|
20190709-12:29:36.444857000 : 8=FIX.4.4|9=81|35=A|34=1|49=ALFN00_00_MD|52=20190709-12:29:36.444|56=NTPROUAT|98=0|108=30|141=Y|10=232|
20190709-12:30:36.277431000 : 8=FIX.4.4|9=81|35=A|34=1|49=ALFN00_00_MD|52=20190709-12:30:36.276|56=NTPROUAT|98=0|108=30|141=Y|10=227|
20190709-12:31:36.029322000 : 8=FIX.4.4|9=81|35=A|34=1|49=ALFN00_00_MD|52=20190709-12:31:36.029|56=NTPROUAT|98=0|108=30|141=Y|10=224|
20190709-12:32:36.484795000 : 8=FIX.4.4|9=81|35=A|34=1|49=ALFN00_00_MD|52=20190709-12:32:36.484|56=NTPROUAT|98=0|108=30|141=Y|10=230|
20190709-12:33:36.298350000 : 8=FIX.4.4|9=81|35=A|34=1|49=ALFN00_00_MD|52=20190709-12:33:36.298|56=NTPROUAT|98=0|108=30|141=Y|10=234|
20190709-12:34:36.121677000 : 8=FIX.4.4|9=81|35=A|34=1|49=ALFN00_00_MD|52=20190709-12:34:36.121|56=NTPROUAT|98=0|108=30|141=Y|10=220|
20190709-12:35:36.538130000 : 8=FIX.4.4|9=81|35=A|34=1|49=ALFN00_00_MD|52=20190709-12:35:36.537|56=NTPROUAT|98=0|108=30|141=Y|10=232|
20190709-12:36:36.236697000 : 8=FIX.4.4|9=81|35=A|34=1|49=ALFN00_00_MD|52=20190709-12:36:36.236|56=NTPROUAT|98=0|108=30|141=Y|10=229|
20190709-12:37:36.424038000 : 8=FIX.4.4|9=81|35=A|34=1|49=ALFN00_00_MD|52=20190709-12:37:36.423|56=NTPROUAT|98=0|108=30|141=Y|10=228|
20190709-12:38:36.354098000 : 8=FIX.4.4|9=81|35=A|34=1|49=ALFN00_00_MD|52=20190709-12:38:36.353|56=NTPROUAT|98=0|108=30|141=Y|10=231|
20190709-12:39:36.069897000 : 8=FIX.4.4|9=81|35=A|34=1|49=ALFN00_00_MD|52=20190709-12:39:36.069|56=NTPROUAT|98=0|108=30|141=Y|10=236|
20190709-12:40:36.246103000 : 8=FIX.4.4|9=81|35=A|34=1|49=ALFN00_00_MD|52=20190709-12:40:36.245|56=NTPROUAT|98=0|108=30|141=Y|10=224|
20190709-12:41:36.227256000 : 8=FIX.4.4|9=81|35=A|34=1|49=ALFN00_00_MD|52=20190709-12:41:36.226|56=NTPROUAT|98=0|108=30|141=Y|10=224|
20190709-12:42:36.433431000 : 8=FIX.4.4|9=81|35=A|34=1|49=ALFN00_00_MD|52=20190709-12:42:36.432|56=NTPROUAT|98=0|108=30|141=Y|10=224|
20190709-12:43:36.243123000 : 8=FIX.4.4|9=81|35=A|34=1|49=ALFN00_00_MD|52=20190709-12:43:36.242|56=NTPROUAT|98=0|108=30|141=Y|10=224|
20190709-12:44:36.335164000 : 8=FIX.4.4|9=81|35=A|34=1|49=ALFN00_00_MD|52=20190709-12:44:36.335|56=NTPROUAT|98=0|108=30|141=Y|10=228|
20190709-12:45:36.139252000 : 8=FIX.4.4|9=81|35=A|34=1|49=ALFN00_00_MD|52=20190709-12:45:36.139|56=NTPROUAT|98=0|108=30|141=Y|10=231|
20190709-12:46:36.148242000 : 8=FIX.4.4|9=81|35=A|34=1|49=ALFN00_00_MD|52=20190709-12:46:36.148|56=NTPROUAT|98=0|108=30|141=Y|10=232|
20190709-12:47:36.338904000 : 8=FIX.4.4|9=81|35=A|34=1|49=ALFN00_00_MD|52=20190709-12:47:36.338|56=NTPROUAT|98=0|108=30|141=Y|10=234|
20190709-12:48:36.070862000 : 8=FIX.4.4|9=81|35=A|34=1|49=ALFN00_00_MD|52=20190709-12:48:36.070|56=NTPROUAT|98=0|108=30|141=Y|10=228|
20190709-12:49:36.361437000 : 8=FIX.4.4|9=81|35=A|34=1|49=ALFN00_00_MD|52=20190709-12:49:36.360|56=NTPROUAT|98=0|108=30|141=Y|10=231|
20190709-12:50:36.491191000 : 8=FIX.4.4|9=81|35=A|34=1|49=ALFN00_00_MD|52=20190709-12:50:36.490|56=NTPROUAT|98=0|108=30|141=Y|10=227|
20190709-12:51:36.035602000 : 8=FIX.4.4|9=81|35=A|34=1|49=ALFN00_00_MD|52=20190709-12:51:36.035|56=NTPROUAT|98=0|108=30|141=Y|10=223|
20190709-12:52:36.301528000 : 8=FIX.4.4|9=81|35=A|34=1|49=ALFN00_00_MD|52=20190709-12:52:36.301|56=NTPROUAT|98=0|108=30|141=Y|10=220|
20190709-12:53:36.394025000 : 8=FIX.4.4|9=81|35=A|34=1|49=ALFN00_00_MD|52=20190709-12:53:36.393|56=NTPROUAT|98=0|108=30|141=Y|10=232|
20190709-12:54:36.240010000 : 8=FIX.4.4|9=81|35=A|34=1|49=ALFN00_00_MD|52=20190709-12:54:36.239|56=NTPROUAT|98=0|108=30|141=Y|10=232|
20190709-12:55:36.309504000 : 8=FIX.4.4|9=81|35=A|34=1|49=ALFN00_00_MD|52=20190709-12:55:36.309|56=NTPROUAT|98=0|108=30|141=Y|10=231|
20190709-12:56:36.372492000 : 8=FIX.4.4|9=81|35=A|34=1|49=ALFN00_00_MD|52=20190709-12:56:36.372|56=NTPROUAT|98=0|108=30|141=Y|10=232|
20190709-12:57:36.293674000 : 8=FIX.4.4|9=81|35=A|34=1|49=ALFN00_00_MD|52=20190709-12:57:36.293|56=NTPROUAT|98=0|108=30|141=Y|10=235|
20190709-12:58:36.104053000 : 8=FIX.4.4|9=81|35=A|34=1|49=ALFN00_00_MD|52=20190709-12:58:36.103|56=NTPROUAT|98=0|108=30|141=Y|10=226|
20190709-12:59:36.160711000 : 8=FIX.4.4|9=81|35=A|34=1|49=ALFN00_00_MD|52=20190709-12:59:36.160|56=NTPROUAT|98=0|108=30|141=Y|10=230|
20190709-13:00:36.259831000 : 8=FIX.4.4|9=81|35=A|34=1|49=ALFN00_00_MD|52=20190709-13:00:36.259|56=NTPROUAT|98=0|108=30|141=Y|10=226|
20190709-13:01:36.373533000 : 8=FIX.4.4|9=81|35=A|34=1|49=ALFN00_00_MD|52=20190709-13:01:36.373|56=NTPROUAT|98=0|108=30|141=Y|10=224|
20190709-13:02:36.345752000 : 8=FIX.4.4|9=81|35=A|34=1|49=ALFN00_00_MD|52=20190709-13:02:36.345|56=NTPROUAT|98=0|108=30|141=Y|10=224|
20190709-13:03:36.044327000 : 8=FIX.4.4|9=81|35=A|34=1|49=ALFN00_00_MD|52=20190709-13:03:36.043|56=NTPROUAT|98=0|108=30|141=Y|10=220|
20190709-13:04:36.228839000 : 8=FIX.4.4|9=81|35=A|34=1|49=ALFN00_00_MD|52=20190709-13:04:36.228|56=NTPROUAT|98=0|108=30|141=Y|10=226|
20190709-13:05:36.127175000 : 8=FIX.4.4|9=81|35=A|34=1|49=ALFN00_00_MD|52=20190709-13:05:36.126|56=NTPROUAT|98=0|108=30|141=Y|10=224|
20190709-13:06:36.134225000 : 8=FIX.4.4|9=81|35=A|34=1|49=ALFN00_00_MD|52=20190709-13:06:36.133|56=NTPROUAT|98=0|108=30|141=Y|10=223|
20190709-13:07:36.165478000 : 8=FIX.4.4|9=81|35=A|34=1|49=ALFN00_00_MD|52=20190709-13:07:36.165|56=NTPROUAT|98=0|108=30|141=Y|10=229|
20190709-13:08:36.013919000 : 8=FIX.4.4|9=81|35=A|34=1|49=ALFN00_00_MD|52=20190709-13:08:36.013|56=NTPROUAT|98=0|108=30|141=Y|10=222|
20190709-13:09:36.227347000 : 8=FIX.4.4|9=81|35=A|34=1|49=ALFN00_00_MD|52=20190709-13:09:36.227|56=NTPROUAT|98=0|108=30|141=Y|10=230|
20190709-13:10:36.017705000 : 8=FIX.4.4|9=81|35=A|34=1|49=ALFN00_00_MD|52=20190709-13:10:36.017|56=NTPROUAT|98=0|108=30|141=Y|10=219|
20190709-13:11:36.035515000 : 8=FIX.4.4|9=81|35=A|34=1|49=ALFN00_00_MD|52=20190709-13:11:36.034|56=NTPROUAT|98=0|108=30|141=Y|10=219|
20190709-13:12:36.053443000 : 8=FIX.4.4|9=81|35=A|34=1|49=ALFN00_00_MD|52=20190709-13:12:36.053|56=NTPROUAT|98=0|108=30|141=Y|10=221|
20190709-13:13:36.055588000 : 8=FIX.4.4|9=81|35=A|34=1|49=ALFN00_00_MD|52=20190709-13:13:36.055|56=NTPROUAT|98=0|108=30|141=Y|10=224|
20190709-13:14:36.201785000 : 8=FIX.4.4|9=81|35=A|34=1|49=ALFN00_00_MD|52=20190709-13:14:36.201|56=NTPROUAT|98=0|108=30|141=Y|10=218|
20190709-13:15:36.136182000 : 8=FIX.4.4|9=81|35=A|34=1|49=ALFN00_00_MD|52=20190709-13:15:36.135|56=NTPROUAT|98=0|108=30|141=Y|10=225|
20190709-13:16:36.043750000 : 8=FIX.4.4|9=81|35=A|34=1|49=ALFN00_00_MD|52=20190709-13:16:36.043|56=NTPROUAT|98=0|108=30|141=Y|10=224|
20190709-13:17:36.071452000 : 8=FIX.4.4|9=81|35=A|34=1|49=ALFN00_00_MD|52=20190709-13:17:36.070|56=NTPROUAT|98=0|108=30|141=Y|10=225|
20190709-13:18:36.042562000 : 8=FIX.4.4|9=81|35=A|34=1|49=ALFN00_00_MD|52=20190709-13:18:36.041|56=NTPROUAT|98=0|108=30|141=Y|10=224|
20190709-13:19:36.786521000 : 8=FIX.4.4|9=81|35=A|34=1|49=ALFN00_00_MD|52=20190709-13:19:36.786|56=NTPROUAT|98=0|108=30|141=Y|10=241|
20190709-13:20:36.648268000 : 8=FIX.4.4|9=81|35=A|34=1|49=ALFN00_00_MD|52=20190709-13:20:36.648|56=NTPROUAT|98=0|108=30|141=Y|10=230|
20190709-13:21:36.223961000 : 8=FIX.4.4|9=81|35=A|34=1|49=ALFN00_00_MD|52=20190709-13:21:36.223|56=NTPROUAT|98=0|108=30|141=Y|10=220|
20190709-13:22:36.497389000 : 8=FIX.4.4|9=81|35=A|34=1|49=ALFN00_00_MD|52=20190709-13:22:36.496|56=NTPROUAT|98=0|108=30|141=Y|10=233|
20190709-13:23:36.407292000 : 8=FIX.4.4|9=81|35=A|34=1|49=ALFN00_00_MD|52=20190709-13:23:36.407|56=NTPROUAT|98=0|108=30|141=Y|10=226|
20190709-13:24:36.038641000 : 8=FIX.4.4|9=81|35=A|34=1|49=ALFN00_00_MD|52=20190709-13:24:36.038|56=NTPROUAT|98=0|108=30|141=Y|10=227|
20190709-13:25:36.354516000 : 8=FIX.4.4|9=81|35=A|34=1|49=ALFN00_00_MD|52=20190709-13:25:36.354|56=NTPROUAT|98=0|108=30|141=Y|10=229|
20190709-13:26:36.329380000 : 8=FIX.4.4|9=81|35=A|34=1|49=ALFN00_00_MD|52=20190709-13:26:36.329|56=NTPROUAT|98=0|108=30|141=Y|10=232|
20190709-13:27:36.962474000 : 8=FIX.4.4|9=81|35=A|34=1|49=ALFN00_00_MD|52=20190709-13:27:36.962|56=NTPROUAT|98=0|108=30|141=Y|10=236|
20190709-13:28:36.326403000 : 8=FIX.4.4|9=81|35=A|34=1|49=ALFN00_00_MD|52=20190709-13:28:36.326|56=NTPROUAT|98=0|108=30|141=Y|10=231|
20190709-13:29:36.357474000 : 8=FIX.4.4|9=81|35=A|34=1|49=ALFN00_00_MD|52=20190709-13:29:36.357|56=NTPROUAT|98=0|108=30|141=Y|10=236|
20190709-13:30:36.086760000 : 8=FIX.4.4|9=81|35=A|34=1|49=ALFN00_00_MD|52=20190709-13:30:36.086|56=NTPROUAT|98=0|108=30|141=Y|10=227|
20190709-13:31:36.410135000 : 8=FIX.4.4|9=81|35=A|34=1|49=ALFN00_00_MD|52=20190709-13:31:36.409|56=NTPROUAT|98=0|108=30|141=Y|10=227|
20190709-13:32:36.353741000 : 8=FIX.4.4|9=81|35=A|34=1|49=ALFN00_00_MD|52=20190709-13:32:36.353|56=NTPROUAT|98=0|108=30|141=Y|10=226|
20190709-13:33:36.891793000 : 8=FIX.4.4|9=81|35=A|34=1|49=ALFN00_00_MD|52=20190709-13:33:36.891|56=NTPROUAT|98=0|108=30|141=Y|10=234|
20190709-13:34:36.165464000 : 8=FIX.4.4|9=81|35=A|34=1|49=ALFN00_00_MD|52=20190709-13:34:36.165|56=NTPROUAT|98=0|108=30|141=Y|10=229|
20190709-13:35:36.918561000 : 8=FIX.4.4|9=81|35=A|34=1|49=ALFN00_00_MD|52=20190709-13:35:36.918|56=NTPROUAT|98=0|108=30|141=Y|10=236|
20190709-13:36:36.416072000 : 8=FIX.4.4|9=81|35=A|34=1|49=ALFN00_00_MD|52=20190709-13:36:36.415|56=NTPROUAT|98=0|108=30|141=Y|10=229|
20190709-13:37:36.478560000 : 8=FIX.4.4|9=81|35=A|34=1|49=ALFN00_00_MD|52=20190709-13:37:36.478|56=NTPROUAT|98=0|108=30|141=Y|10=239|
20190709-13:38:36.195797000 : 8=FIX.4.4|9=81|35=A|34=1|49=ALFN00_00_MD|52=20190709-13:38:36.195|56=NTPROUAT|98=0|108=30|141=Y|10=236|
20190709-13:39:36.458373000 : 8=FIX.4.4|9=81|35=A|34=1|49=ALFN00_00_MD|52=20190709-13:39:36.458|56=NTPROUAT|98=0|108=30|141=Y|10=239|
20190709-13:40:36.350439000 : 8=FIX.4.4|9=81|35=A|34=1|49=ALFN00_00_MD|52=20190709-13:40:36.350|56=NTPROUAT|98=0|108=30|141=Y|10=222|
