8=FIX.4.1|9=57|35=A|34=1|49=TW|52=20190707-16:17:01|56=ARCA|98=0|108=20|10=252|8=FIX.4.1|9=57|35=A|34=2|49=TW|52=20190707-16:20:02|56=ARCA|98=0|108=20|10=248|8=FIX.4.1|9=57|35=A|34=3|49=TW|52=20190707-16:23:02|56=ARCA|98=0|108=20|10=252|8=FIX.4.1|9=57|35=A|34=4|49=TW|52=20190707-16:26:02|56=ARCA|98=0|108=20|10=000|8=FIX.4.1|9=57|35=A|34=5|49=TW|52=20190707-16:29:02|56=ARCA|98=0|108=20|10=004|8=FIX.4.1|9=57|35=A|34=6|49=TW|52=20190707-16:32:02|56=ARCA|98=0|108=20|10=255|8=FIX.4.1|9=57|35=A|34=7|49=TW|52=20190707-16:35:03|56=ARCA|98=0|108=20|10=004|8=FIX.4.1|9=57|35=A|34=8|49=TW|52=20190707-16:38:03|56=ARCA|98=0|108=20|10=008|8=FIX.4.1|9=57|35=A|34=9|49=TW|52=20190707-16:41:01|56=ARCA|98=0|108=20|10=001|8=FIX.4.1|9=58|35=A|34=10|49=TW|52=20190707-16:44:01|56=ARCA|98=0|108=20|10=045|8=FIX.4.1|9=58|35=A|34=11|49=TW|52=20190707-16:47:02|56=ARCA|98=0|108=20|10=050|8=FIX.4.1|9=58|35=A|34=12|49=TW|52=20190707-16:50:02|56=ARCA|98=0|108=20|10=045|8=FIX.4.1|9=58|35=A|34=13|49=TW|52=20190707-16:53:02|56=ARCA|98=0|108=20|10=049|8=FIX.4.1|9=58|35=A|34=14|49=TW|52=20190707-16:56:02|56=ARCA|98=0|108=20|10=053|8=FIX.4.1|9=58|35=A|34=15|49=TW|52=20190707-16:59:02|56=ARCA|98=0|108=20|10=057|8=FIX.4.1|9=58|35=A|34=16|49=TW|52=20190707-17:02:03|56=ARCA|98=0|108=20|10=048|8=FIX.4.1|9=58|35=A|34=17|49=TW|52=20190707-17:05:48|56=ARCA|98=0|108=20|10=061|8=FIX.4.1|9=58|35=A|34=18|49=TW|52=20190707-17:08:50|56=ARCA|98=0|108=20|10=058|8=FIX.4.1|9=58|35=A|34=19|49=TW|52=20190707-17:11:50|56=ARCA|98=0|108=20|10=053|8=FIX.4.1|9=58|35=A|34=20|49=TW|52=20190707-17:14:51|56=ARCA|98=0|108=20|10=049|8=FIX.4.1|9=58|35=A|34=21|49=TW|52=20190707-17:17:51|56=ARCA|98=0|108=20|10=053|8=FIX.4.1|9=58|35=A|34=22|49=TW|52=20190707-17:20:51|56=ARCA|98=0|108=20|10=048|8=FIX.4.1|9=58|35=A|34=23|49=TW|52=20190707-17:23:49|56=ARCA|98=0|108=20|10=059|8=FIX.4.1|9=58|35=A|34=24|49=TW|52=20190707-17:26:50|56=ARCA|98=0|108=20|10=055|8=FIX.4.1|9=58|35=A|34=25|49=TW|52=20190707-17:29:50|56=ARCA|98=0|108=20|10=059|8=FIX.4.1|9=58|35=A|34=26|49=TW|52=20190707-18:23:23|56=ARCA|98=0|108=20|10=055|